:020000040800F2
:100000003805002045010008D3150008A513000895
:10001000D1150008DD010008691900080000000082
:10002000000000000000000000000000D7150008DC
:10003000DF01000800000000D5150008D9150008F0
:100040005F0100085F0100085F0100085F01000810
:100050005F0100085F0100085F0100085F01000800
:100060005F0100085F0100085F0100085F010008F0
:100070005F0100085F0100085F0100085F010008E0
:100080005F0100085F0100085F0100085F010008D0
:100090005F0100085F0100085F0100085F010008C0
:1000A0005F0100085F0100085F0100085F010008B0
:1000B0002D1600085F010008391600085F010008CE
:1000C0005F0100085F0100085F0100085F01000890
:1000D0005F0100085F0100085F0100085F01000880
:1000E0005F0100085F0100085F0100085F01000870
:1000F0005F0100085F0100085F0100085F01000860
:100100005F0100085F0100085F0100085F0100084F
:100110005F0100085F0100085F0100085F0100083F
:100120005F0100085F0100085F0100085F0100082F
:10013000DFF80CD000F040F800480047351B0008FD
:10014000380500200648804706480047FEE7FEE7DE
:10015000FEE7FEE7FEE7FEE7FEE7FEE7FEE7FEE777
:100160002B16000831010008D2B201E000F8012B83
:10017000491EFBD270470022F6E710B513460A4627
:1001800004461946FFF7F0FF204610BD30B50B4678
:10019000014600202022012409E021FA02F59D42B7
:1001A00005D303FA02F5491B04FA02F52844151E8B
:1001B000A2F10102F1DC30BD064C074D06E0E0681B
:1001C00040F0010394E8070098471034AC42F6D39E
:1001D000FFF7B2FF941B0008B41B0008FEE770474E
:1001E000704700002DE9F84FDFF8C891002409F1AD
:1001F000040A0AF1040B23460F270BF1040ED1E089
:100200000125A54006EA0502AA4276D1DFF8A8C179
:100210004E68A6EB0C0866452BD00DDC032E34D0BF
:1002200005DC36B3012E19D0022E2FD11BE0112E82
:1002300016D0122E2AD119E0B8F5881F19D006DC85
:10024000B8F5803F15D0B8F5801F1FD111E0B8F583
:10025000001F0ED0B8F5041F18D10AE0CB6815E0D6
:10026000CB681B1D12E0CB6808330FE0CB680C3362
:100270000CE08B682BB1012B4FF0080303D04561D4
:1002800004E0042302E0056100E00023FF2A01D816
:10029000064601E000F104064FEA840501D9A5F104
:1002A0002005D6F8008007FA05FC28EA0C0803FAB6
:1002B00005F548EA0508C6F800804D68ED0070D5E0
:1002C0003E4DAE6946F00106AE61AD6924F003060D
:1002D00005F0010500953A4D06EB050CDCF80850D9
:1002E000A607360F07FA06F825EA0805DFF8D480D6
:1002F000404503D14FF0000825E052E0DFF8C88008
:10030000404502D14FF001081DE0DFF8C0804045B4
:1003100002D14FF0020816E0DFF8B480404502D168
:100320004FF003080FE0DFF8AC80404502D14FF0FA
:10033000040808E0DFF8A080404502D14FF005082E
:1003400001E04FF0060808FA06F848EA0508CCF87C
:1003500008804D68D9F80060ED034D4601D516437D
:1003600000E096432E604D68DAF80060AD03554614
:1003700001D5164300E096432E604D68DBF800601F
:10038000ED025D4601D5164300E096432E604D68B0
:10039000DEF80060AD02754601D5164300E09643D5
:1003A0002E60641C0A681646E2407FF429AFBDE85F
:1003B000F88F0000000401400000111000100240FE
:1003C0000000014000080140000C01400010014005
:1003D0000014014000180140001C0140C26821EADD
:1003E00002030A4043EA0241016170470AB1016118
:1003F00070470904FBE7000001488068704700006F
:100400000C00002002488168027811448160704726
:100410000C000020074810B5016841F01001016090
:10042000032000F075F8002000F006F800F024F832
:10043000002010BD0020024070B50D4D04464FF461
:100440007A712878B1FBF0F00A490968B1FBF0F045
:1004500000F0ECFA48B9102C07D200222146501EB9
:1004600000F036F800206C6070BD012070BD000007
:100470000C000020180000200C4808B5816941F0EC
:1004800001018161816901F001010091C16941F0BF
:100490008051C161C06900F08050009004484168FB
:1004A00021F0E06141F08061416008BD0010024030
:1004B00000000140002809DB00F01F0201219140EB
:1004C0004009800000F1E020C0F8001170470000F2
:1004D000F0B40E4B1B680C46C3F30223C3F10705AF
:1004E000042D00D90425191D072901D2002300E09D
:1004F000DB1E012606FA05F1491E214099409E4067
:10050000761E16403143F0BC01F040BA0CED00E01D
:10051000064900F0070208684FF6FF03184040EA5A
:100520000220034A10430860704700000CED00E011
:100530000000FA052DE9F0470F46050061D0434E53
:10054000306800F00700B84209D2306820F0070098
:1005500038433060306800F00700B84251D1286855
:100560003B4C810712D5400703D5606840F4E0603A
:1005700060602878000703D5606840F460506060D0
:100580006068A96820F0F000084360602878C00720
:1005900028D06868012810D02168022810D0890767
:1005A00000292EDA616821F0030101436160FFF741
:1005B00023FF804641F288390DE021688903EFE787
:1005C0008901EDE7FFF718FFA0EB0801494502D9C3
:1005D0000320BDE8F0876068696800F00C00B0EBAC
:1005E000810FEFD1306800F00700B8420BD93068B6
:1005F00020F0070038433060306800F00700B84250
:1006000001D00120E5E72878400705D56068E96852
:1006100020F4E060084360602878000706D5606831
:10062000296920F4605040EAC100606000F038F8A9
:100630006168084AC1F30311515CC840064908606B
:1006400006480068FFF7F8FE0020C2E700200240DD
:10065000001002407C1B0008180000201000002041
:100660000448054900684968044AC1F30221515C05
:10067000C840704718000020001002408C1B000882
:100680000448054900684968044AC1F3C221515C25
:10069000C840704718000020001002408C1B000862
:1006A00012A185B00FC98DE80F0014A0144A00688C
:1006B00004905168134801F00C03042B10D0082B50
:1006C0000ED1C1F38343C9031DF803000AD5516855
:1006D00004AAC1F34041515C0A4A5043B0FBF1F017
:1006E00005B0704708494843FAE7000002030405D3
:1006F000060708090A0B0C0D0E0F1010010200006E
:100700000010024000127A0000093D002DE9F84F68
:10071000040070D02078C04DC00749D06868C0F38D
:100720008100012807D06868C0F38100022809D140
:100730006868C00306D52868800339D5606800283A
:10074000E7D035E06068B0F5803F0BD010B1B0F570
:10075000A02F11D0286820F480302860286820F469
:10076000802002E0286840F480302860606890B102
:10077000FFF742FE06460AE0286840F48020286021
:10078000F0E700BFFFF738FE801B642873D82868A5
:100790008003F7D50CE0FFF72FFE064605E000BF0B
:1007A000FFF72AFE801B6428F0D828688003F7D45E
:1007B00020789A4E80074FF001094FF0000839D594
:1007C000686810F00C0F07D06868C0F38100022839
:1007D00009D16868C00306D42868800714D5206949
:1007E000012808D110E02069B0B1C6F80090FFF7E9
:1007F00003FE074605E00AE1FFF7FEFDC01B0228E5
:10080000C4D828688007F7D52868616920F0F80007
:1008100040EAC10028600DE0C6F80080FFF7ECFD5B
:10082000074604E0FFF7E8FDC01B022823D828682C
:100830008007F7D4207800072CD57948A169D9B171
:10084000C0F80090FFF7D8FD074604E0FFF7D4FD9D
:10085000C01B02280FD8686A8007F7D571484FF48B
:10086000FA510068B0FBF1F0009000BF0098411E03
:100870000091FAD20EE080E0C0F80080FFF7BCFDE6
:10088000074604E0FFF7B8FDC01B022875D8686A68
:100890008007F7D42078400760D5E8690027C000BA
:1008A00008D4E86940F08050E861E869012700F069
:1008B000805000905C480168C90513D401688346E4
:1008C00041F480710160FFF797FD824606E000BFAA
:1008D000FFF792FDA0EB0A0064284ED8DBF8000079
:1008E000C005F5D5E06801280AD008B1052813D065
:1008F000286A20F001002862286A20F0040002E043
:10090000286A40F001002862E06841F2883B98B113
:10091000FFF772FD82460BE0286A40F0040028626F
:10092000EEE700BFFFF768FDA0EB0A0159455AD872
:10093000286A8007F6D50CE0FFF75EFD824605E0E9
:10094000FFF75AFDA0EB0A0159454CD8286A8007E9
:10095000F6D41FB1E86920F08050E861E06988B3FF
:100960006968C1F38101022944D00228C6F8608079
:1009700004D0FFF741FD044638E034E0FFF73CFDCA
:10098000074604E0FFF738FDC01B02282BD8286873
:100990008001F7D4206AB0F5803F05D16868A1686E
:1009A00020F4003008436860D4E90801084369680E
:1009B00021F4741108436860C6F86090FFF71CFDCD
:1009C000044606E025E000BFFFF716FD001B0228E5
:1009D00009D828688001F7D51BE000BFFFF70CFDA0
:1009E000001B022802D90320BDE8F88F2868800187
:1009F000F4D40EE00128F7D06868226A00F4803150
:100A0000914204D1616A00F47010884201D0012043
:100A1000EAE70020E8E70000001002400000424240
:100A200080044242180000200070004010B5401EB3
:100A3000B0F1807F01D3012010BD4FF0E024606150
:100A40000F21601700F0A2FF0020A06107202061A5
:100A5000002010BD7047704710B590F83C20012A67
:100A600022D0012280F83C20CA688C6822F44072AF
:100A700022434C6822F4806222430C6822F4006214
:100A800022430C6922F4805222434C6922F4005222
:100A90002243C969002322F480420A4301684A6460
:100AA00080F83C30002010BD022010BD70B590F8D9
:100AB0003C20012A2CD0012480F83C40022280F8FE
:100AC0003D2003685A689D6822F070060A68324328
:100AD0005A60104B02689A420ED00F4B9A420BD0CC
:100AE000B2F1804F08D00D4B9A4205D00C4B9A4280
:100AF00002D00C4B9A4204D1496825F08003194377
:100B0000916080F83D40002180F83C10084670BD9F
:100B1000022070BD002C0140003401400004004060
:100B200000080040000C004010B5040003D094F809
:100B30003D0010B107E0012010BD002084F83C000A
:100B4000204600F01FF8022084F83D00211D206897
:100B500000F078FD012084F8460084F83E0084F817
:100B60003F0084F8400084F8410084F8420084F893
:100B7000430084F8440084F8450084F83D000020D8
:100B800010BD000008B50068B0F1804F12D10A48CE
:100B9000C16941F00101C161C069002200F001009A
:100BA000009001211C20FFF793FCBDE808401C20A9
:100BB000FFF780BC08BD00000010024090F83D1017
:100BC000012901D001207047022180F83D10016801
:100BD000CA6842F00102CA6000680E4988420ED01D
:100BE0000D4988420BD0B0F1804F08D00B498842A4
:100BF00005D00B49884202D00A49884204D1816855
:100C000001F00701062903D0016841F001010160EC
:100C100000207047002C01400034014000040040D7
:100C200000080040000C004070B5044690F83C00FD
:100C3000012817D0012584F83C50022084F83D009B
:100C40002068826822F0770222F47F42826008687E
:100C5000502830D00DDC20284DD005DC98B310286A
:100C60003BD148E0022070BD302844D0402834D128
:100C700039E0602828D0702806D0B0F5805F2CD0ED
:100C8000B0F5005F29D10AE0CB68D1E901212068E5
:100C900000F02BFD2068816841F0770109E0CB6806
:100CA000D1E90121206800F020FD2068816841F42D
:100CB0008041816011E0CA684968206800F0EAFD5F
:100CC0005021206807E016E0CA684968206800F0F3
:100CD000F2FD6021206800F012FD84F83D500020F4
:100CE00084F83C0070BDCA684968206800F0D2FDF5
:100CF00040212068EFE7226801461046EBE72DE926
:100D0000F0410D46040003D094F83D0018B108E00E
:100D10000120BDE8F081002084F83C00204600F06E
:100D200041F8022084F83D002068816844F20702FF
:100D300091438160211D206800F084FC2268906846
:100D40009169166A2B68AF69034340F2033081430F
:100D500041EA0721A868EF6908434FF6FC41884340
:100D6000E96840EA0720014328692F6A000140EA48
:100D70000730084369686D6926F0220646EA0515C2
:100D8000294393602268906154F8460B0162012068
:100D900004F81F09E0752076E0762077A075002022
:100DA000B7E7000000B585B00021009101910291E4
:100DB00003910068114988421ED11148C16941F070
:100DC0000401C161C16901F004010491816941F02C
:100DD000080181618069694600F008000490C02024
:100DE00000900848FFF7FEF9002211461E20FFF789
:100DF0006FFB1E20FFF75EFB05B000BD0008004042
:100E000000100240000C014070B590F83E600446AE
:100E100090F83F5090F8423090F84320022021B1E2
:100E200004290ED0012E1BD114E0012E18D1012B64
:100E300016D184F83E0084F8420001220021206887
:100E400020E0012D0CD1012A0AD184F83F0084F85A
:100E5000430014E0012D03D1012B01D1012A01D05F
:100E6000012070BD84F83E0084F83F0084F8420001
:100E700084F8430001220021206800F029FC0122AF
:100E80000421206800F024FC2068016841F0010181
:100E90000160002070BD704770B5044600680169AC
:100EA0004FF00005C943890715D4C168C9438907B4
:100EB00011D4E91E01610120207720688069800734
:100EC000204602D0FFF7E7FF04E000F0BFF820461D
:100ED00000F062F9257720680169C943490717D4F2
:100EE000C168C943490713D46FF0040101610220AE
:100EF00020772068806910F4407F204602D0FFF7F9
:100F0000CAFF04E000F0A2F8204600F045F925777A
:100F100020680169C943090716D4C168C943090794
:100F200012D46FF008010161042020772068C069A5
:100F30008007204602D0FFF7AEFF04E000F086F8FD
:100F4000204600F029F9257720680169C943C906C0
:100F500017D4C168C943C90613D46FF010010161E9
:100F6000082020772068C06910F4407F204602D016
:100F7000FFF791FF04E000F069F8204600F00CF95B
:100F8000257720680169C943C90708D1C168C943E9
:100F9000C90704D1891E0161204600F059F9206873
:100FA0000169C943090609D4C168C943090605D4C2
:100FB0006FF0800101612046FFF74CFD2068016958
:100FC000C943490609D4C168C943490605D46FF02D
:100FD00040010161204600F07BF920680169C943A6
:100FE00089060BD4C168C943890607D46FF0200174
:100FF00001612046BDE87040FFF72DBD70BD0000C7
:1010000000B585B000210091019102910391006823
:101010000B49884212D10B48816941F0040181617A
:101020008069694600F0040004904FF4106000905D
:101030000220019003900448FFF7D4F805B000BDEA
:10104000002C01400010024000080140704770B5BC
:10105000044690F83C000D4601280AD0012084F88F
:101060003C0042B1042A18D0082A2AD00C2A4DD1BB
:1010700039E0022070BD206800F04AFB20688169D9
:1010800041F0080181612068816921F004018161DA
:10109000206881692A69114311E0206800F068FB2B
:1010A0002068816941F4006181612068816921F4CF
:1010B00080618161206881692A6941EA0221816138
:1010C00024E0206800F08AFB2068C16941F0080133
:1010D000C1612068C16921F00401C1612068C16952
:1010E0002A69114311E0206800F0ACFB2068C16957
:1010F00041F40061C1612068C16921F48061C1616E
:101100002068C1692A6941EA0221C161002084F88E
:101110003C0070BD10B5040003D094F83D0010B140
:1011200007E0012010BD002084F83C00204600F0BC
:101130001FF8022084F83D00211D206800F082FA8B
:10114000012084F8460084F83E0084F83F0084F8CB
:10115000400084F8410084F8420084F8430084F899
:10116000440084F8450084F83D00002010BD0000D4
:1011700008B500680649884208D10648816941F4EB
:1011800000618161806900F40060009008BD00008A
:10119000002C0140001002407047000010B50446CA
:1011A000022249B104290ED0082913D094F8410035
:1011B000012816D0012010BD94F83E000128F9D175
:1011C00084F83E200FE094F83F000128F2D184F823
:1011D0003F2008E094F840000128EBD184F840203B
:1011E00001E084F841200122206800F071FA1349DF
:1011F0002068134A884201D0904203D1436C43F4E3
:1012000000434364206888420DD090420BD0B0F177
:10121000804F08D00B49884205D00B49884202D044
:101220000A49884204D1816801F00701062903D0E8
:10123000016841F001010160002010BD002C014057
:10124000003401400004004000080040000C004051
:1012500070B51349884221D112480068416A1222B0
:10126000B1FBF2F1104C09B20025616045620F49F3
:101270004FF46160096848633220A0602078401C08
:10128000C0B22070642809D904210948FFF7A6F8E4
:10129000D4E9011207A000F069FB257070BD0000C1
:1012A00068000020B0000020000000202000002086
:1012B00000140140456E636F646572203D20256413
:1012C000206D6F746F203D202564200D0A00000002
:1012D000704770B5040004D094F83900002510B1AF
:1012E00006E0012070BD84F83850204600F022F856
:1012F000242084F839002068C16821F40051C160BD
:10130000204600F0EBFA2068016921F49041016168
:101310002068416921F02A0141612068C16841F4D7
:101320000051C160E563202084F8390084F83A0058
:10133000002070BD30B585B0002400940194029463
:10134000039400681449884224D11448816941F407
:1013500080418161816901F480410491816941F09A
:101360000401816180690E4D00F0040004904FF487
:1013700000700090022001900320039069462846E7
:10138000FEF730FF2815CDE900046946284602948F
:10139000FEF728FF05B030BD0038014000100240C4
:1013A00000080140FEE7000030B585B00024184871
:1013B0000094019402940394816941F020018161B9
:1013C000816901F020010491816941F0040181618A
:1013D000816901F004010491816941F00801816192
:1013E00080690C4D00F00800049001220421284679
:1013F000FEF7FCFF042000900120CDE9010403204A
:10140000039069462846FEF7EDFE05B030BD0000AA
:10141000001002400014014010B592B000240F9457
:101420001C2168461094FEF7A6FE202107A8FEF7AF
:10143000A2FE24482249C0E9001441F61F41C0E938
:101440000241046144618461FFF764FE08B1FEF764
:10145000C7FE0F940FA91B481094FFF727FB08B194
:10146000FEF7BEFE6020CDE90004029403940494CC
:1014700005940022694613480694FFF7E8FD08B179
:10148000FEF7AEFE0C2269460E48FFF7E0FD08B1FC
:10149000FEF7A6FE0794089409944FF400500A94AE
:1014A000CDE90B4007A907480E94FFF7D5FA08B11C
:1014B000FEF796FE0348FFF7A3FD12B010BD000033
:1014C000002C01402000002010B586B000241748F1
:1014D000009401940294039404944FF08041059485
:1014E000016041F61F41C0E901146321C0E9031402
:1014F00080218161FFF718FB08B1FEF771FE4FF400
:101500008050009069460948FFF78EFB08B1FEF74E
:1015100067FE049404A905480594FFF7C7FA00285C
:1015200001D0FEF75DFE06B010BD0000680000208F
:1015300010B58CB024216846FEF71DFE0024154826
:10154000099413490A94C0E900144FF6FF71C0E9E9
:101550000241046184610120CDE90004CDE9020467
:101560000494CDE90540079469460A480894FFF7BA
:10157000C6FB08B1FEF734FE099409A905480A9490
:10158000FFF794FA002801D0FEF72AFE0CB010BD38
:1015900000080040B00000200C4810B50A49016066
:1015A0004FF4E1314160002181600C22C160C0E94B
:1015B00004128161C161FFF78CFE002803D0BDE8F1
:1015C0001040FEF70DBE10BD00380140F8000020AD
:1015D000FEE7704770477047FEF714BF30B58FB015
:1015E00028216846FEF7C7FD14210AA8FEF7C3FDAF
:1015F00001210804CDE90010002402940225049181
:10160000CDE907504FF4E01009906846FFF77EF8E7
:101610000F20CDE90A056802CDE90C4002210AA895
:101620000E94FEF787FF0FB030BD70470148FFF7FB
:1016300033BC0000680000200148FFF72DBC00000B
:10164000B0000020F0B502681C4B1D4D1D4E1E4F12
:101650001E4C4FF0804C984209D0A04207D0604504
:1016600005D0A84203D0B04201D0B84204D122F044
:10167000700E4A6842EA0E02984209D0A04207D092
:10168000604505D0A84203D0B04201D0B84203D192
:1016900022F44075CA682A434D6922F080022A4329
:1016A00002608A68C2620A688262984201D0A042DF
:1016B00001D10969016301214161F0BD002C0140A4
:1016C0000004004000080040000C004000340140CD
:1016D00010B501F01F030121046A99408C43046294
:1016E000016A9A401143016210BD10B5846842EA54
:1016F000032224F47F440A432243826010BD82689F
:1017000022F070020A4342F0070181607047000036
:10171000F0B5026A22F001020262036A426884693B
:10172000124E24F073050C682C4323F002058B68DD
:101730002B430D4DA84201D0B04205D123F008073C
:10174000CB683B4323F00403A84201D0B04205D14B
:101750004D6922F4407215438A692A4342608461CC
:10176000496841630362F0BD002C01400034014030
:10177000F0B5026A22F010020262026A43688469CC
:101780000D6824F4E64444EA05248D6822F0200222
:1017900042EA05120F4D104EA84201D0B04206D1C8
:1017A000CF6822F0800242EA071222F04002A842EB
:1017B00001D0B04207D14D6923F4406343EA850369
:1017C0008D6943EA850343608461496881630262ED
:1017D000F0BD0000002C014000340140F0B5026A69
:1017E00022F480720262026A4368C46922F40072C1
:1017F00024F073050C68124E2C438D6842EA0522D2
:101800000E4DA84201D0B04206D1CF6822F400624A
:1018100042EA072222F48062A84201D0B04207D1F6
:101820004D6923F4405343EA05138D6943EA0513D8
:101830004360C4614968C1630262F0BD002C01408D
:101840000034014030B5026A22F480520262046A18
:101850004268C3690D6823F4E64343EA05238D68B3
:1018600024F4005444EA0534084DA84202D0084D3F
:10187000A84204D14D6922F4804242EA85124260B6
:10188000C36149680164046230BD0000002C01405E
:101890000034014010B5036A046A24F001040462B4
:1018A000846924F0F00444EA021423F00A020A4393
:1018B0008461026210BD10B5036A23F01003036255
:1018C0008369046A23F4704343EA023224F0A003DC
:1018D00043EA01118261016210BD000010B50446A7
:1018E00000680169E26821F44051114301612169F6
:1018F000A0680843616908432168CA6841F20C6323
:101900009A430243CA6020684169A26921F4407188
:101910001143416113492068884202D1FEF7B0FEAD
:1019200001E0FEF79DFE00EBC00101EB00106168D5
:1019300064228900B0FBF1F1B1FBF2F06FF0180303
:10194000434301EB8303322101EB0311B1FBF2F1BD
:1019500001F0F00202EB001001F00F0108442168D1
:10196000886010BD00380140FEE700000FB4054B51
:1019700010B503A9044A029800F028F810BC5DF8DD
:1019800014FB0000211B00081C0000200907090EA1
:10199000002804DB00F1E02080F80014704700F01C
:1019A0000F0000F1E02080F8141D704702E008C825
:1019B000121F08C1002AFAD170477047002001E0C9
:1019C00001C1121F002AFBD1704700002DE9FF4F13
:1019D00089B09B460446002506E025280BD05A46D0
:1019E0000B999047641C6D1C20780028F5D10DB030
:1019F0002846BDE8F08F0027B8460122474900E09D
:101A0000074314F8013F203B02FA03F00842F7D1E4
:101A100020782E2819D114F8010F47F004072A283E
:101A20000ED06FF02F022078A0F1300109290CD8D8
:101A300008EB880102EB410100EB0108641CF2E7AE
:101A40000A98641C50F8048B0A9020780028CED0A5
:101A5000642808D0692806D075281ED05A460B99EC
:101A600090476D1C58E00A994FF00A0901C90A9184
:101A7000002802DA40422D2102E0390504D52B214D
:101A80008DF82010012103E0F90704D02021F7E7A9
:101A90008A4608AE0DE00021FAE70A994FF00A09DC
:101AA00001C90A91F7E74946FEF770FB303106F8A5
:101AB000011D0028F7D1ADEB060000F120097807E1
:101AC00001D44FF00108C84502DDA8EB090000E091
:101AD00000208046002706E008A85A46C05D0B9902
:101AE00090476D1C7F1C5745F6DB04E030205A46BA
:101AF0000B9990476D1CB8F10001A8F10108F5DCC5
:101B000005E016F8010B5A460B9990476D1CB9F188
:101B10000001A9F10109F4DC641C65E70928010052
:101B200003490A681206FCD50149091D086070477F
:101B300000380140FEF76EFCFFF750FDFFF734FC64
:101B4000FFF76AFCFFF7C0FCFFF7F2FCFFF724FD8C
:101B500000210748FFF722FB00210648FFF754F950
:101B600004210448FFF750F90348FFF727F8FEE780
:101B700020000020B00000206800002000000000CD
:101B8000000000000102030406070809000000002D
:101B900001020304B41B0008000000202000000024
:101BA000AC190008D41B0008200000201805000014
:101BB000BC19000800000000000000000000000048
:101BC0000100000010000000000000000024F400EC
:041BD0000000000011
:0400000508000131BD
:00000001FF
