:020000040800F2
:10000000005000204D100008D50B0008D70B000849
:10001000D90B0008DB0B0008DD0B00080000000016
:10002000000000000000000000000000F12B0008AC
:10003000DF0B000800000000912C0008D52C000800
:1000400095100008951000089510000895100008FC
:1000500095100008951000089510000895100008EC
:1000600095100008951000089510000895100008DC
:1000700095100008951000089510000895100008CC
:1000800095100008951000089510000895100008BC
:1000900095100008951000089510000895100008AC
:1000A000951000089510000895100008951000089C
:1000B000E10B0008F10B0008010C00089510000886
:1000C000951000089510000895100008951000087C
:1000D00095100008110C0008210C0008951000086C
:1000E0009510000895100008951000080000000009
:1000F0000000000000000000000000000000000000
:0C01000000000000000000005FF808F1A3
:1001100010B5054C237833B9044B13B10448AFF341
:1001200000800123237010BD440400200000000063
:100130004039000808B5034B1BB103490348AFF32E
:10014000008008BD0000000048040020403900087D
:1001500080F0004002E000BF81F0004142001FBF7C
:100160005FEA410392EA030F7FEA226C7FEA236C85
:100170006AD04FEA1262D2EB1363C1BFD21841407A
:1001800048404140B8BF5B42192B88BF704710F010
:10019000004F40F4000020F07F4018BF404211F0B3
:1001A000004F41F4000121F07F4118BF494292EA1B
:1001B000030F3FD0A2F1010241FA03FC10EB0C0047
:1001C000C3F1200301FA03F100F0004302D54942D4
:1001D00060EB4000B0F5000F13D3B0F1807F06D381
:1001E00040084FEA310102F10102FE2A51D2B1F179
:1001F000004F40EBC25008BF20F0010040EA03006E
:100200007047490040EB0000013A28BFB0F5000FED
:10021000EDD2B0FA80FCACF1080CB2EB0C0200FAA3
:100220000CF0AABF00EBC25052421843BCBFD040F2
:100230001843704792F0000F81F4000106BF80F46C
:1002400000000132013BB5E74FEA41037FEA226C2F
:1002500018BF7FEA236C21D092EA030F04D092F0FA
:10026000000F08BF0846704790EA010F1CBF00202E
:10027000704712F07F4F04D1400028BF40F000408B
:10028000704712F100723CBF00F50000704700F0AB
:10029000004343F0FE4040F4000070477FEA2262D2
:1002A00016BF08467FEA23630146420206BF5FEAA3
:1002B000412390EA010F40F4800070474FF00003A3
:1002C00004E000BF10F0004348BF40425FEA000C6A
:1002D00008BF704743F0964301464FF000001CE012
:1002E00050EA010208BF70474FF000030AE000BF68
:1002F00050EA010208BF704711F0004302D54042A6
:1003000061EB41015FEA010C02BF84460146002017
:1003100043F0B64308BFA3F18053A3F50003BCFA32
:100320008CF2083AA3EBC25310DB01FA02FC6344DF
:1003300000FA02FCC2F12002BCF1004F20FA02F2E6
:1003400043EB020008BF20F00100704702F12002D9
:1003500001FA02FCC2F1200250EA4C0021FA02F23A
:1003600043EB020008BF20EADC7070474FF0FF0C3F
:100370001CEAD0521EBF1CEAD15392EA0C0F93EA3A
:100380000C0F6FD01A4480EA010C400218BF5FEADC
:1003900041211ED04FF0006343EA501043EA51114F
:1003A000A0FB01310CF00040B1F5000F3EBF490049
:1003B00041EAD3715B0040EA010062F17F02FD2A4D
:1003C0001DD8B3F1004F40EBC25008BF20F0010030
:1003D000704790F0000F0CF0004C08BF49024CEA47
:1003E000502040EA51207F3AC2BFD2F1FF0340EAD9
:1003F000C250704740F400004FF00003013A5DDC4A
:1004000012F1190FDCBF00F000407047C2F100028A
:10041000410021FA02F1C2F1200200FA02FC5FEA77
:10042000310040F1000053EA4C0308BF20EADC70C1
:10043000704792F0000F00F0004C02BF400010F433
:10044000000F013AF9D040EA0C0093F0000F01F0E0
:10045000004C02BF490011F4000F013BF9D041EA02
:100460000C018FE70CEAD15392EA0C0F18BF93EA04
:100470000C0F0AD030F0004C18BF31F0004CD8D12E
:1004800080EA010000F00040704790F0000F17BFB5
:1004900090F0004F084691F0000F91F0004F14D0FB
:1004A00092EA0C0F01D142020FD193EA0C0F03D153
:1004B0004B0218BF084608D180EA010000F0004056
:1004C00040F0FE4040F40000704740F0FE4040F431
:1004D000400070474FF0FF0C1CEAD0521EBF1CEAD0
:1004E000D15392EA0C0F93EA0C0F69D0A2EB0302EE
:1004F00080EA010C49024FEA402037D04FF0805388
:1005000043EA111143EA10130CF000408B4238BF4C
:100510005B0042F17D024FF4000C8B4224BF5B1A5A
:1005200040EA0C00B3EB510F24BFA3EB510340EAA8
:100530005C00B3EB910F24BFA3EB910340EA9C0056
:10054000B3EBD10F24BFA3EBD10340EADC001B01C6
:1005500018BF5FEA1C1CE0D1FD2A3FF650AF8B426A
:1005600040EBC25008BF20F0010070470CF0004C77
:100570004CEA50207F32C2BFD2F1FF0340EAC250A2
:10058000704740F400004FF00003013A37E792F063
:10059000000F00F0004C02BF400010F4000F013AC1
:1005A000F9D040EA0C0093F0000F01F0004C02BFBC
:1005B000490011F4000F013BF9D041EA0C0195E725
:1005C0000CEAD15392EA0C0F08D142027FF47DAFBE
:1005D00093EA0C0F7FF470AF084676E793EA0C0FAE
:1005E00004D14B023FF44CAF08466EE730F0004CAC
:1005F00018BF31F0004CCAD130F000427FF45CAF3C
:1006000031F000437FF43CAF5FE700BF4FF0FF3CA9
:1006100006E000BF4FF0010C02E000BF4FF0010CFC
:100620004DF804CD4FEA40024FEA41037FEA226CC5
:1006300018BF7FEA236C11D001B052EA530C18BFE7
:1006400090EA010F58BFB2EB030088BFC81738BF4C
:100650006FEAE17018BF40F0010070477FEA226C3A
:1006600002D15FEA402C05D17FEA236CE4D15FEA36
:10067000412CE1D05DF8040B704700BF844608466A
:100680006146FFE70FB5FFF7C9FF002848BF10F12B
:10069000000F0FBD4DF808EDFFF7F4FF0CBF012070
:1006A00000205DF808FB00BF4DF808EDFFF7EAFFFA
:1006B00034BF012000205DF808FB00BF4DF808EDB5
:1006C000FFF7E0FF94BF012000205DF808FB00BFAA
:1006D0004DF808EDFFF7D2FF94BF012000205DF830
:1006E00008FB00BF4DF808EDFFF7C8FF34BF01203D
:1006F00000205DF808FB00BF4FEA4002B2F1FE4F58
:100700000FD34FF09E03B3EB12620DD94FEA0023D3
:1007100043F0004310F0004F23FA02F018BF4042AC
:1007200070474FF00000704712F1610F01D1420293
:1007300005D110F0004008BF6FF0004070474FF047
:100740000000704770B5204B1B684FF4C36003FB7B
:1007500000F0FFF7B7FD1D4B1968FFF7FDFC0446DD
:100760001B4D2968FFF7FAFC28601A49FFF7BAFF0A
:1007700008B1184A2A601849154B1868FFF794FF0A
:1007800010B1134B144A1A60144B19682046FFF736
:10079000EDFD05460E4B1968114B1868FFF7E6FD95
:1007A00001462846FFF7DAFC05460E4E3168204622
:1007B000FFF7D2FC0C4B1968FFF7D8FD014628461D
:1007C000FFF7CCFC346070BD64040020600400209E
:1007D0006804002000006144000061C47804002027
:1007E000740400206C0400207004002002464C2396
:1007F00003FB01F0904206DB6FF04B0303FB01F0BB
:10080000904200DC10467047074B084A1A60084BBC
:10081000084A1A60084B094A1A60094B00221A60FC
:10082000084B0A221A607047780400200000F0404C
:10083000740400203333B33E700400200000A04154
:100840006004002064040020F8B50C1A104E3068D3
:10085000201AFFF737FD0F4B1968FFF787FD054694
:100860002046FFF72FFD0C4B1968FFF77FFD01466F
:100870002846FFF773FC0546084F3868FFF722FD4E
:100880002946FFF76BFCFFF737FF38603460F8BD8F
:100890008004002004000020000000207C040020D0
:1008A00041F65833984202DC002803DB704741F6DA
:1008B000583070470020704788B0074B01934FF0C5
:1008C0007F5302930023039304930593002206921F
:1008D000079308B0704700BF0000B44308B500F0AC
:1008E000DBFB0A2002F0F4F8F9E708B500F010FC91
:1008F0000A2002F0EDF8F9E7034B0360034B0B60AD
:1009000080231360704700BF8C0600208C040020F9
:1009100010B58EB0124C0DF11C0CA646BEE80F00AF
:10092000ACE80F009EE807008CE80700002107A84C
:1009300002F099F80B4B1860EE4604F11C0CBCE871
:100940000F00AEE80F009CE807008EE807000021CA
:10095000684602F088F8044B18600EB010BD00BF66
:100960005839000884040020880400202DE9F04153
:1009700088B0002404940594069407942B4B9A693C
:1009800042F010029A619A6902F010020092009AF5
:100990009A6942F020029A619A6902F0200201925B
:1009A000019A9A6942F004029A619A6902F004027B
:1009B0000292029A9A6942F008029A619B6903F0D6
:1009C00008030393039B1A4E01224FF480413046E3
:1009D00000F0B4FD174F01224FF47341384600F088
:1009E000ADFD4FF4804304930125059506944FF027
:1009F0000308CDF81C8004A9304600F08DFC4FF4AC
:100A0000004304930594069504A9304600F084FC45
:100A10004FF47343049305950694CDF81C8004A904
:100A2000384600F079FC08B0BDE8F08100100240C3
:100A300000100140000C014030B591B02822002187
:100A400006A802F0BBFE00240194029403940494CF
:100A50000594012206924FF4803307930A920225EF
:100A60000D950E934FF4E0130F9306A800F082FD4E
:100A70000F230193029503944FF48063049305942C
:100A8000294601A800F0B6FF11B030BD08B500F04E
:100A900059FBFFF7D1FFFFF769FF00F029FA00F0DB
:100AA00041FA00F0C1F900F0F5F800F0C3F8FFF7E3
:100AB00003FFFFF7A9FE0D4C0021204601F04CFC7E
:100AC0000C21204601F048FC094C0021204601F091
:100AD000B1FC0421204601F0ADFC064801F036F9D6
:100AE000FFF716FF01F0BAFFFEE700BF3407002052
:100AF0007C070020C407002008B50268034B9A4217
:100B000000D008BD00F030FBFBE700BF0004004050
:100B10007047000082B00E4B9A6942F001029A6160
:100B20009A6902F001020092009ADA6942F080525A
:100B3000DA61DB6903F080530193019B054A536836
:100B400023F0E06343F00073536002B0704700BFCE
:100B5000001002400000014000B589B001460022AB
:100B60001D2000F025FB1D2000F05AFB154BDA6913
:100B700042F00202DA61DB6903F002030193019B98
:100B800002A903A801F012F800F0F0FF43000E489C
:100B9000A0FB03239B0C013B0C480D4A026040F272
:100BA000E732C260436000230361836001F0FEF915
:100BB00018B1012009B05DF804FB044801F0C6F843
:100BC000F8E700BF0010024083DE1B43EC06002064
:100BD000000400407047FEE7FEE7FEE7FEE77047CF
:100BE00008B5024801F0EAF808BD00BF7C07002004
:100BF00008B5024801F0E2F808BD00BFEC0600208D
:100C000008B5024801F0DAF808BD00BFC4070020AB
:100C100008B5024801F01AFE08BD00BF0C0800200C
:100C200008B5024801F012FE08BD00BF50080020C0
:100C30007047000000B58DB02422002103A802F007
:100C4000BDFD00230193029311484FF080420260E2
:100C5000436083604FF6FF72C260036183610123CA
:100C600003930593099303A901F0F8F950B9002300
:100C70000193029301A9064801F042FC28B90DB086
:100C80005DF804FBFFF744FFF1E7FFF741FFF6E7EC
:100C90007C07002000B587B00023029303930493E0
:100CA0000593009301931548154A026041F61F42CF
:100CB000426083606322C26003618023836101F02C
:100CC00075F990B94FF48053029302A90B4801F0D3
:100CD000C7FA68B90023009301936946074801F0F9
:100CE0000FFC40B907B05DF804FBFFF711FFE9E71F
:100CF000FFF70EFFEEE7FFF70BFFF3E7C407002057
:100D0000000800400268094B9A4200D0704782B048
:100D100003F564439A6942F400629A619B6903F4A3
:100D200000630193019B02B0704700BF002C01409B
:100D300000B587B0002302930393049305930368DF
:100D4000B3F1804F02D007B05DF804FB03F5043324
:100D5000DA6942F00102DA61DA6902F00102009216
:100D6000009A9A6942F004029A619B6903F00403B5
:100D70000193019B0323029302A9064800F0CCFAD9
:100D8000002211461C2000F013FA1C2000F048FA43
:100D9000D9E700BF0008014002680E4B9A4200D01C
:100DA000704700B583B003F50233DA6942F00402FC
:100DB000DA61DB6903F004030193019B0022012146
:100DC0001E2000F0F5F91E2000F02AFA03B05DF8AD
:100DD00004FB00BF0008004000B587B00023029369
:100DE00003930493059302680D4B9A4202D007B017
:100DF0005DF804FB03F564439A6942F004029A61CA
:100E00009B6903F004030193019B4FF41063029369
:100E100002230393059302A9024800F07DFAE6E756
:100E2000002C01400008014010B592B0002410943D
:100E3000119409940A940B940C940D940E940F94AD
:100E40002022214601A802F0B9FC2748274B036065
:100E50004460846041F61F43C3600461446184615F
:100E600001F0D0F8002830D100231093119310A97D
:100E70001D4801F045FB00282AD160230993002278
:100E80000A920B920C920D920E920F9209A916489B
:100E900001F072F9F8B90C2209A9134801F06CF9B4
:100EA000E0B90023019302930393049305934FF455
:100EB00000520692089301A90B4801F057FB80B934
:100EC0000948FFF789FF12B010BDFFF721FECBE7FD
:100ED000FFF71EFED1E7FFF71BFEDCE7FFF718FE6A
:100EE000DFE7FFF715FEEBE734070020002C014099
:100EF00008B50A480A4B03604FF4E133436000230E
:100F00008360C36003610C2242618361C36101F0AD
:100F1000EBFB00B908BDFFF7FBFDFBE70C08002069
:100F20000038014008B50A480A4B03604FF41653D5
:100F3000436000238360C36003610C2242618361CC
:100F4000C36101F0D1FB00B908BDFFF7E1FDFBE78C
:100F5000500800200044004030B589B000230493BD
:100F60000593069307930368344A934204D0344AA6
:100F7000934233D009B030BD324B9A6942F480427B
:100F80009A619A6902F480420092009A9A6942F04A
:100F900004029A619B6903F004030193019B4FF4DF
:100FA000007304930223059303230793264D04A99A
:100FB000284600F0B1F94FF48063049300240594AF
:100FC000069404A9284600F0A7F9224621462520C8
:100FD00000F0EEF8252000F023F9CBE7194BDA6991
:100FE00042F40032DA61DA6902F400320292029AC3
:100FF0009A6942F004029A619B6903F00403039327
:10100000039B0423049302230593032307930E4DAC
:1010100004A9284600F080F90823049300240594CD
:10102000069404A9284600F077F922462146262096
:1010300000F0BEF8262000F0F3F89BE700380140EE
:101040000044004000100240000801400C480D49D7
:101050000D4A002302E0D458C4500433C4188C4213
:10106000F9D30A4A0A4C002301E013600432A24279
:10107000FBD3FFF7DDFD02F07DFBFFF707FD7047B7
:101080000000002044040020E4390008440400204B
:10109000E8150020FEE7000038B5FFF753FB164CBB
:1010A0002060FFF729FB1421FFF7A0FBFFF70AF9E7
:1010B00020601249FFF70EFA2060FFF71DFB014682
:1010C0000F4B1868FFF7C0FB0E4C2060FFF7E8FBE2
:1010D00020600D4D00224FF48051284600F02EFA7A
:1010E00001224FF40051284600F028FA074B1B68F4
:1010F00022681A6438BD00BFE40600200000984250
:10110000E0060020E8060020000C01403407002023
:1011100010B5094B1B68586A400000B24042074AAC
:10112000106000225A62064CFFF7CCF82168FFF7E6
:1011300015F8206010BD00BF7C070020E0060020ED
:101140006004002008B5074A136843F010031360D9
:10115000032000F01BF80020FFF7FEFCFFF7DAFC8D
:10116000002008BD00200240034A1168034B1B7891
:101170000B441360704700BF940800200C0000204F
:10118000014B1868704700BF94080020074AD368D5
:1011900023F4E0631B041B0C000200F4E060034333
:1011A00043F0BF6343F40033D360704700ED00E0C9
:1011B00000B5194BDB68C3F30223C3F1070CBCF184
:1011C000040F28BF4FF0040C03F1040EBEF1060F0C
:1011D00018D9033B4FF0FF3E0EFA0CFC21EA0C013C
:1011E00099400EFA03F322EA0303194300280BDBAC
:1011F0000901C9B200F1604000F5614080F80013B8
:101200005DF804FB0023E5E700F00F000901C9B217
:10121000024B1954F4E700BF00ED00E014ED00E0CC
:10122000002807DB00F01F02400901239340024A17
:1012300042F82030704700BF00E100E090F8213014
:10124000022B06D004238363002380F82030012082
:1012500070470268136823F00E0313600268136876
:1012600023F001031360036CC16B012202FA03F344
:101270004B6080F82120002380F82030184670470A
:1012800008B590F82130022B03D00423836301209A
:1012900008BD0268136823F00E0313600268136828
:1012A00023F0010313600368194A934214D01432E7
:1012B00093421FD0143293421ED0143293421ED058
:1012C000143293421ED01432934202D04FF08072F7
:1012D00003E04FF4801200E001220E4B5A6001231C
:1012E00080F82130002380F82030436B6BB19847A1
:1012F0000020CDE71022F0E74FF48072EDE74FF4C5
:101300008052EAE74FF48032E7E70020C0E700BFF1
:10131000080002400000024070B582B00024A446DC
:10132000A6E0804DAA4210D007D97F4DAA420CD02A
:1013300005F58035AA4208D013E0A5F58015AA422C
:1013400003D005F57025AA4207D18A68002A58D033
:10135000012A51D04361082403E0A5F58015AA4273
:10136000F3D0BEF1FF0F4ED80646BEF1FF0F4CD8AA
:101370004FEA8C0233680F25954023EA050304FAEF
:1013800002F2134333604B6813F0805F6ED0674BFB
:101390009A6942F001029A619B6903F0010301938B
:1013A000019B4FEA9C02951C614B53F825600CF0A1
:1013B00003039D000F23AB4026EA03065D4B9842D2
:1013C00029D003F58063984200F08E8003F5806396
:1013D000984200F08B8003F58063984219D0042373
:1013E0001AE0CC68BDE7CC680434BAE7CC680834AE
:1013F000B7E7CC680C34B4E703610824B1E70024F4
:10140000AFE70424ADE7061DAFE7ACF10802920098
:10141000B0E7032300E00023AB4033430232444DE6
:1014200045F822304B6813F4803F61D0424A13687C
:1014300043EA0E0313604B6813F4003F5ED03E4A4C
:10144000536843EA0E0353604B6813F4801F5BD06C
:10145000394A936843EA0E0393604B6813F4001F04
:1014600058D0354AD36843EA0E03D3600CF1010C1F
:101470000A6832FA0CF353D0012303FA0CF302EAA0
:10148000030E33EA0202F1D14A68122A3FF649AF4D
:10149000122A3FF666AF01A555F822F04B1300085B
:1014A000E3130008ED130008FF130008631300089E
:1014B0006313000863130008631300086313000834
:1014C0006313000863130008631300086313000824
:1014D0006313000863130008631300086313000814
:1014E000E7130008F3130008012395E7022393E7AD
:1014F000114A136823EA0E0313609CE70E4A5368EF
:1015000023EA0E0353609FE70B4A936823EA0E0316
:101510009360A2E7084AD36823EA0E03D360A5E7E5
:1015200002B070BD00002210000031100010024017
:101530000000014000080140000401400AB10161BF
:10154000704709040161704782B0084B1B68084A64
:10155000A2FB03235B0A00FB03F3019300BF019B83
:101560005A1E0192002BF9D102B0704708000020EA
:10157000D34D6210002800F0F18170B582B00446AE
:10158000036813F0010F2CD0994B5B6803F00C0338
:10159000042B1DD0964B5B6803F00C03082B12D074
:1015A0006368B3F5803F41D0002B55D103F18043F0
:1015B00003F504331A6822F480321A601A6822F4A0
:1015C00080221A6037E08A4B5B6813F4803FE7D0D3
:1015D000874B1B6813F4003F03D06368002B00F0B7
:1015E000BF81236813F0020F75D0814B5B6813F045
:1015F0000C0F5FD07E4B5B6803F00C03082B54D0BC
:101600002369002B00F08A807A4B01221A60FFF7D1
:10161000B7FD0546764B1B6813F0020F75D1FFF737
:10162000AFFD401B0228F5D903209EE1704A1368E4
:1016300043F480331360636843B3FFF7A1FD0546AD
:101640006B4B1B6813F4003FCBD1FFF799FD401B98
:101650006428F5D9032088E1B3F5A02F09D0644BA5
:101660001A6822F480321A601A6822F480221A6002
:10167000E1E703F18043A3F53C331A6842F480228A
:101680001A601A6842F480321A60D4E7FFF778FDD6
:101690000546574B1B6813F4003FA2D0FFF770FDBF
:1016A000401B6428F5D903205FE1514B5B6813F4BC
:1016B000803FA5D14E4B1B6813F0020F03D0236966
:1016C000012B40F04F814A4A136823F0F803616907
:1016D00043EAC1031360236813F0080F33D0A369F2
:1016E000002B5CD0434B0122C3F88024FFF748FD58
:1016F00005463F4B5B6A13F0020F21D1FFF740FD17
:10170000401B0228F5D903202FE1394A136823F042
:10171000F803616943EAC1031360DCE7354B00223B
:101720001A60FFF72DFD0546314B1B6813F0020FC1
:10173000D1D0FFF725FD401B0228F5D9032014E185
:101740000120FFF701FF236813F0040F00F09680DB
:10175000274BDB6913F0805F34D1254BDA6942F007
:101760008052DA61DB6903F080530193019B01250C
:10177000214B1B6813F4807F26D0E368012B3DD0FA
:10178000002B53D103F1804303F504331A6A22F08E
:1017900001021A621A6A22F004021A6233E0154B3F
:1017A0000022C3F88024FFF7EBFC0546104B5B6A70
:1017B00013F0020FC7D0FFF7E3FC401B0228F5D956
:1017C0000320D2E00025D3E70B4A136843F480736B
:1017D0001360FFF7D5FC0646074B1B6813F4807FA8
:1017E000CBD1FFF7CDFC801B6428F5D90320BCE0EA
:1017F0000010024000004242007000405F4A136A3D
:1018000043F001031362E36833B3FFF7B9FC064604
:101810005A4B1B6A13F0020F2FD1FFF7B1FC801B4C
:1018200041F288339842F3D903209EE0052B09D07A
:10183000524B1A6A22F001021A621A6A22F004025A
:101840001A62E0E74D4B1A6A42F004021A621A6A01
:1018500042F001021A62D6E7FFF792FC0646474BB8
:101860001B6A13F0020F08D0FFF78AFC801B41F2BD
:1018700088339842F3D9032077E0E5B9E369002B78
:1018800072D03E4A526802F00C02082A56D0022B4F
:1018900017D03B4B00221A66FFF772FC0446374B09
:1018A0001B6813F0007F47D0FFF76AFC001B02287B
:1018B000F5D9032059E0314AD36923F08053D3612D
:1018C000DCE72F4B00221A66FFF75AFC05462B4B2C
:1018D0001B6813F0007F06D0FFF752FC401B022864
:1018E000F5D9032041E0236AB3F5803F1AD023499C
:1018F0004B6823F47413226A606A024313434B60FB
:101900001F4B01221A66FFF73BFC04461B4B1B686A
:1019100013F0007F0ED1FFF733FC001B0228F5D92E
:10192000032022E0154A536823F40033A1680B43D7
:101930005360DCE7002018E0002016E0012B16D0F1
:101940000E4B5B6803F48031226A914211D103F49B
:101950007013626A93420ED1002006E001207047A6
:10196000012002E0012000E0002002B070BD012053
:10197000FBE70120F9E70120F7E700BF0010024074
:101980000000424286B0174B0FCB0DF1180C0CE94A
:101990000F0040F20123ADF80430134B5B6803F0F5
:1019A0000C02082A02D0114806B07047C3F38342E4
:1019B00018326A4412F8100C13F4803F0DD00A4B11
:1019C0005B68C3F3404318336B4413F8143C074A75
:1019D00002FB00F0B0FBF3F0E6E7054B03FB00F081
:1019E000E2E700BFB83900080010024000127A0098
:1019F00000093D00002800F0A08070B50D460446A7
:101A0000524B1B6803F007038B420BD24F4A1368FB
:101A100023F007030B431360136803F007038B42A3
:101A200040F08D80236813F0020F17D013F0040FDD
:101A300004D0474A536843F4E0635360236813F0CB
:101A4000080F04D0424A536843F460535360404A3D
:101A5000536823F0F003A1680B435360236813F02D
:101A6000010F31D06368012B20D0022B25D0384ADA
:101A7000126812F0020F64D035494A6822F003025E
:101A800013434B60FFF77CFB0646314B5B6803F06A
:101A90000C036268B3EB820F16D0FFF771FB801B5B
:101AA00041F288339842F0D9032045E0284A126871
:101AB00012F4003FE0D101203EE0254A126812F006
:101AC000007FD9D1012037E0204B1B6803F00703CA
:101AD000AB420AD91D4A136823F007032B43136056
:101AE000136803F00703AB422DD1236813F0040FF2
:101AF00006D0174A536823F4E063E1680B43536050
:101B0000236813F0080F07D0114A536823F4605379
:101B1000216943EAC1035360FFF734FF0C4B5B6854
:101B2000C3F303130B4AD35CD8400B4B18600B4B29
:101B30001868FFF711F8002070BD012070470120E0
:101B4000FAE70120F8E70120F6E700BF0020024095
:101B500000100240A03900080800002010000020FA
:101B6000014B1868704700BF0800002008B5FFF758
:101B7000F7FF044B5B68C3F30223034AD35CD840EE
:101B800008BD00BF00100240B039000808B5FFF7DB
:101B9000E7FF044B5B68C3F3C223034AD35CD8401E
:101BA00008BD00BF00100240B03900080F230360D9
:101BB0000B4B5A6802F0030242605A6802F0F002CE
:101BC00082605A6802F4E062C2605B68DB0803F47A
:101BD000E0630361034B1B6803F007030B6070476E
:101BE000001002400020024070B4036A23F0010399
:101BF0000362036A4668826922F073020C6844EA51
:101C0000020523F002028B6813430D4CA04209D059
:101C10000B4CA0420DD0466085614A684263036266
:101C200070BC704723F00803CA68134323F0040311
:101C3000EEE726F440764A6932438E691643EAE7B6
:101C4000002C014030B4036A23F480730362036AFA
:101C50004568C26922F073020C68224323F40073C2
:101C60008C6843EA04230F4CA04209D00D4CA042DB
:101C70000ED04560C2614A68C263036230BC7047DF
:101C800023F40063CC6843EA042323F48063EDE784
:101C900025F440554C6945EA04158C6945EA04155C
:101CA000E7E700BF002C014030B4036A23F48053FF
:101CB0000362036A4468C26922F4E6420D6842EA9C
:101CC000052223F400538D6843EA0533074DA842EB
:101CD00006D04460C2614A680264036230BC704747
:101CE00024F480444D6944EA8514F2E7002C014055
:101CF00010B4036A046A24F001040462846924F0C5
:101D0000F00C4CEA021223F00A030B4382610362D7
:101D100010BC704710B4046A24F010040462846993
:101D2000036A24F4704C4CEA023223F0A00343EA25
:101D300001138261036210BC7047836823F0700353
:101D40000B4343F0070383607047000090F83D3079
:101D5000DBB2012B27D1022380F83D300268D36823
:101D600043F00103D3600368114A934210D0B3F1EA
:101D7000804F0DD0A2F59432934209D002F58062D3
:101D8000934205D01A6842F001021A6000207047A1
:101D90009A6802F00702062A07D01A6842F0010288
:101DA0001A6000207047012070470020704700BF74
:101DB000002C0140704770477047704710B50446CB
:101DC00003681A6912F0020F11D0DA6812F0020FDC
:101DD0000DD06FF002021A610123037703689B693B
:101DE00013F0030F70D0FFF7E6FF0023237723687B
:101DF0001A6912F0040F12D0DA6812F0040F0ED034
:101E00006FF004021A610223237723689B6913F49D
:101E1000407F5FD02046FFF7CEFF00232377236863
:101E20001A6912F0080F12D0DA6812F0080F0ED0FB
:101E30006FF008021A61042323772368DB6913F02B
:101E4000030F4ED02046FFF7B6FF00232377236809
:101E50001A6912F0100F12D0DA6812F0100F0ED0BB
:101E60006FF010021A61082323772368DB6913F4EB
:101E7000407F3DD02046FFF79EFF00232377236855
:101E80001A6912F0010F03D0DA6812F0010F36D18F
:101E900023681A6912F0800F03D0DA6812F0800FFD
:101EA00034D123681A6912F0400F03D0DA6812F0B7
:101EB000400F32D123681A6912F0200F03D0DA687C
:101EC00012F0200F30D110BDFFF774FF2046FFF74E
:101ED00073FF8AE72046FFF76DFF2046FFF76CFF90
:101EE0009BE72046FFF766FF2046FFF765FFACE75C
:101EF0002046FFF75FFF2046FFF75EFFBDE76FF06C
:101F000001021A612046FEF7F7FDC1E76FF080027B
:101F10001A61204600F054FBC3E76FF040021A61DB
:101F20002046FFF74AFFC5E76FF020021A612046FE
:101F300000F045FBC7E7000003681B4A90420AD047
:101F4000B0F1804F07D0A2F59432904203D002F551
:101F50008062904203D123F070034A681343124A0F
:101F600090420AD0B0F1804F07D0A2F5943290424F
:101F700003D002F58062904203D123F44073CA6813
:101F8000134323F080034A69134303608B68C362E1
:101F90000B688362044B984202D00123436170476F
:101FA0000B690363F9E700BF002C014040B310B593
:101FB000044690F83D30F3B1022384F83D302146C9
:101FC00051F8040BFFF7B8FF012384F8463084F87A
:101FD0003E3084F83F3084F8403084F8413084F853
:101FE000423084F8433084F8443084F8453084F833
:101FF0003D30002010BD80F83C30FEF7CDFEDBE721
:102000000120704740B310B5044690F83D30F3B15D
:10201000022384F83D30214651F8040BFFF78CFF72
:10202000012384F8463084F83E3084F83F3084F849
:10203000403084F8413084F8423084F8433084F8EA
:10204000443084F8453084F83D30002010BD80F8DD
:102050003C30FEF757FEDBE701207047002857D0E1
:1020600070B50D46044690F83D30002B4BD002234E
:1020700084F83D302268936823F4804323F00703FB
:102080009360214651F8040BFFF756FF21688A68D8
:102090008B690E6A2868104323F4407C2CF0030CF3
:1020A000AA68AB6942EA032343EA0C0323F47C43A6
:1020B00023F0FC03EA69D5F80CC04CEA022C4CEA88
:1020C000030C2A6A13032A6943EA021343EA0C0346
:1020D00026F022066A686D6942EA0512324388607A
:1020E00021688B6123681A62012384F8463084F8E2
:1020F0003E3084F83F3084F8423084F8433084F82E
:102100003D30002070BD80F83C30FEF711FEAEE798
:102110000120704730B4036A23F010030362036A9E
:102120004468826922F4E6420D6842EA052223F0FF
:1021300020038D6843EA05130E4DA84209D00D4DCA
:10214000A8420ED0446082614A688263036230BC58
:10215000704723F08003CD6843EA051323F0400362
:10216000EDE724F440644D6944EA85048D6944EA4E
:102170008504E7E7002C014038B590F83C30012B8E
:1021800060D004460D46012380F83C300C2A1AD852
:10219000DFE802F0071919191D1919193119191950
:1021A00044000068FFF720FD2268936943F00803AC
:1021B00093612268936923F0040393612268936911
:1021C00029690B439361002084F83C0038BD006806
:1021D000FFF7A0FF2268936943F4006393612268CC
:1021E000936923F48063936122689369296943EAC0
:1021F00001239361E7E70068FFF724FD2268D369B4
:1022000043F00803D3612268D36923F00403D36148
:102210002268D36929690B43D361D4E70068FFF7CB
:1022200043FD2268D36943F40063D3612268D36914
:1022300023F48063D3612268D369296943EA0123C7
:10224000D361C0E70220C1E710B4846824F47F4C56
:1022500042EA03220A4342EA0C02826010BC704741
:1022600090F83C30012B66D010B50446012380F86D
:102270003C30022380F83D300268936823F47F43AA
:1022800023F0770393600B68602B40D022D8402B5B
:1022900047D00BD9502B0ED1CA6849680068FFF7A8
:1022A00027FD50212068FFF748FD04E0202B0CD0CB
:1022B00008D9302B09D0012384F83D30002084F860
:1022C0003C0010BD0BB1102BF5D119462068FFF76B
:1022D00034FDF0E7702B0ED0B3F5005FEBD1CB6887
:1022E0004A6889680068FFF7AFFF2268936843F483
:1022F00080439360DFE7CB684A6889680068FFF72E
:10230000A3FF2268936843F077039360D3E7CA681A
:1023100049680068FFF7FEFC60212068FFF70DFDAB
:10232000C9E7CA6849680068FFF7E2FC40212068F5
:10233000FFF703FDBFE70220704701F01F010123F3
:1023400003FA01FC036A23EA0C030362036A02FA3C
:1023500001F10B430362704710B50446084651BBB8
:1023600094F83E30DBB2013B18BF0123002B5BD158
:10237000002839D1022384F83E300122014620682A
:10238000FFF7DBFF23682A4A93423DD02368284A9F
:1023900093423ED0B3F1804F3BD0A2F594329342AA
:1023A00037D002F58062934233D01A6842F00102BE
:1023B0001A60002039E0042908D008290DD094F8CB
:1023C0004130DBB2013B18BF0123CFE794F83F3027
:1023D000DBB2013B18BF0123C8E794F84030DBB201
:1023E000013B18BF0123C1E7042805D0082807D006
:1023F000022384F84130C0E7022384F83F30BCE771
:10240000022384F84030B8E75A6C42F400425A6420
:10241000BCE79A6802F00702062A07D01A6842F061
:1024200001021A60002000E0012010BD0020FCE73E
:10243000002C014038B5044690F83E00C0B294F834
:102440003F3094F84220D2B294F843C00D46B1B95F
:10245000012849D1012A48D1022384F83E3084F86A
:1024600042307DB3042D39D0012200212068FFF7CE
:1024700064FF012204212068FFF75FFF27E0DBB241
:102480005FFA8CFC042912D0012833D1012B2CD106
:10249000012A31D1BCF1010F30D1022384F83E3042
:1024A00084F83F3084F8423084F84330D9E7012B78
:1024B0001CD1BCF1010F1BD1022384F83F3084F8FA
:1024C0004330CEE7012200212068FFF736FF226863
:1024D000136843F001031360002006E00122042189
:1024E0002068FFF72AFFF2E7012038BD0120FCE752
:1024F0001846FAE70120F8E71846F6E71046F4E731
:1025000090F83C30012B2CD010B4012380F83C30E3
:10251000022380F83D3003685A689C6822F0700CF2
:102520000A6842EA0C025A6003680F4A93420AD0D2
:10253000B3F1804F07D0A2F59432934203D002F555
:102540008062934204D124F080044A6814439C6062
:10255000012380F83D30002380F83C30184610BC41
:1025600070470220704700BF002C014090F83C30BB
:10257000012B22D0012380F83C30CB6823F4407338
:102580008A68134323F480634A68134323F4006387
:102590000A68134323F480530A69134323F4005356
:1025A0004A69134323F48043CA691343026853649E
:1025B000002380F83C30184670470220704770476F
:1025C00070470268D36823F49073D360026853693C
:1025D00023F001035361036B012B05D0202380F806
:1025E0003E300023036370470268D36823F0100372
:1025F000D360F3E790F83D30DBB2212B01D002200D
:1026000070478368B3F5805F17D0036A5A1C026273
:102610001A7803685A60C38C9BB2013B9BB2C38497
:102620004BB90268D36823F08003D3600268D36893
:1026300043F04003D360002070470369002BE4D1CE
:10264000036A1B880268C3F308035360036A0233FA
:102650000362E0E710B504460268136923F44053AF
:10266000C1680B43136183680269134342691A43CB
:102670000168CB6823F4B05323F00C031343CB6001
:102680000268536923F4407381690B435361026804
:10269000134B9A4220D0FFF769FA024602EB8202FE
:1026A00002EB820263689B00B2FBF3F20D48A0FBD1
:1026B00002314909642303FB11231B013233A0FBC0
:1026C00003235B0903F0F00202EB011203F00F0396
:1026D000216813448B6010BDFFF758FA0246DDE70E
:1026E000003801401F85EB5158B310B5044690F8EF
:1026F0003D300BB3242384F83D302268D36823F4A3
:102700000053D3602046FFF7A5FF2268136923F426
:10271000904313612268536923F02A0353612268AE
:10272000D36843F40053D36000202064202384F84E
:102730003D3084F83E3010BD80F83C30FEF70CFC94
:10274000D8E701207047704708B50168CA6822F0D1
:102750004002CA60202280F83D20FFF7F4FF0020ED
:1027600008BD7047704708B5406A0023C385C3841D
:10277000FFF7F8FF08BD704790F83E30DBB2222B20
:1027800060D18368B3F5805F46D0826AB3F5805F1D
:1027900004D0002B4DD10369002B4AD103685B683C
:1027A0001370836A01338362C38D9BB2013B9BB27A
:1027B000C385002B48D100B583B00268D36823F0ED
:1027C0002003D3600268D36823F48073D360026867
:1027D000536923F001035361202380F83E30036BDB
:1027E000012B2CD1002303630268D36823F010036C
:1027F000D36003681A6812F0100F06D0002201920D
:102800001A6801925B680193019B818DFFF7B3FF0A
:10281000002003B05DF804FB0269002AB5D1826A8A
:1028200003685B68C3F308031380836A023383621F
:10283000BAE703685B6803F07F031370B1E7FFF743
:1028400090FFE5E7022070470020704730B583B065
:10285000044602681368D068516913F00F0505D16A
:1028600013F0200F02D010F0200F19D12DB111F06C
:10287000010119D110F4907F16D1216B012975D077
:1028800013F0800F03D010F0800F40F0D78013F0CA
:10289000400F03D010F0400F40F0D48003B030BDA3
:1028A0002046FFF769FFF9E713F0010F06D010F497
:1028B000807F03D0226C42F00102226413F0040FE7
:1028C00004D019B1226C42F00202226413F0020F0C
:1028D00004D019B1226C42F00402226413F0080FF4
:1028E00007D010F0200F00D119B1226C42F008027D
:1028F0002264226C002AD1D013F0200F02D010F0F5
:10290000200F21D123685B6903F04003226C12F091
:10291000080F00D123B32046FFF753FE23685A69FE
:1029200012F0400F18D05A6922F040025A61A36B8E
:1029300073B1464A5A63A06BFEF7A2FC0028ADD0E3
:10294000A06B436B9847A9E72046FFF715FFD9E72F
:102950002046FFF707FFA1E72046FFF703FF9DE7AB
:102960002046FFF7FFFE0023236497E713F0100FC4
:1029700086D010F0100F83D00023019313680193C9
:1029800053680193019B536913F0400F32D0A16B40
:102990000B685B689BB2002B80D0A08D98427FF6BD
:1029A0007DAFE3858B69202B08D1A18DE38D9BB290
:1029B000C91A89B22046FFF7DEFE6FE7D36823F419
:1029C0008073D3602268536923F001035361226846
:1029D000536923F040035361202384F83E300023E1
:1029E00023632268D36823F01003D360A06BFEF743
:1029F00025FCDAE7A18DE38D9BB2C91A89B2E38D7C
:102A00009BB2002B3FF44AAF00293FF447AFD36895
:102A100023F49073D3602268536923F00103536158
:102A2000202384F83E30002323632268D36823F0F8
:102A30001003D3602046FFF79EFE2FE72046FFF7E6
:102A4000D9FD2BE72046FFF77FFE27E76727000821
:102A5000842801D0033070470020704708B500F08B
:102A6000CDFC002008BD2DE9F04387B004460F4699
:102A70004569BDB18669AEB1D0F80480D0F8009048
:102A8000B0F90800FFF7E4FF0296019500903B467D
:102A900022694946404600F043FC0590059807B07E
:102AA000BDE8F08365682668D4F81080B4F90800A2
:102AB000FFF7CEFF05AB019300903B461FFA88F26B
:102AC0003146284600F066FC0128E7D00020E6E702
:102AD00008B500B9012000F0DBFD002008BD00F1C1
:102AE000080343604FF0FF328260C360036100233C
:102AF0000360704700230361704743684B609A6826
:102B00008A6051609960086103680133036070470F
:102B100030B40D68B5F1FF3F11D000F108031C4639
:102B20005B681A68AA42FAD963684B6099608C6046
:102B30006160086103680133036030BC7047046959
:102B4000F2E70369416882688A60416851605A68A7
:102B5000824206D0002202611A68013A1A6018689F
:102B6000704782685A60F5E782B0002301930D4BED
:102B70001B68B3F1FF3F08D04FF0500383F3118877
:102B8000BFF36F8FBFF34F8FFEE74FF0500383F318
:102B90001188BFF36F8FBFF34F8F019B002BFCD0C9
:102BA00002B070471400002006480068006880F3F7
:102BB000088862B661B6BFF34F8FBFF36F8F00DF37
:102BC00000BF000008ED00E04FF0807340F8043CC7
:102BD00021F0010140F8081C034B40F80C3C40F880
:102BE000202C4038704700BF692B0008000000000F
:102BF000074B19680868B0E8F00F80F30988BFF345
:102C00006F8F4FF0000080F311884EF00D0E70476B
:102C1000B81400204FF0500383F31188BFF36F8F77
:102C2000BFF34F8F0B4A136801331360012B00D0A1
:102C300070474FF0E023D3F8043D13F0FF0FF7D0B7
:102C40004FF0500383F31188BFF36F8FBFF34F8FA3
:102C5000FEE700BF14000020094B1B6843B94FF08A
:102C6000500383F31188BFF36F8FBFF34F8FFEE7DD
:102C7000013B034A13600BB983F31188704700BF0F
:102C80001400002000000000000000000000000010
:102C9000EFF30980BFF36F8F0D4B1A6820E9F00F37
:102CA00010602DE908404FF0500080F3118800F0CB
:102CB00015FD4FF0000080F31188BDE80840196849
:102CC0000868B0E8F00F80F30988BFF36F8F704792
:102CD000B814002008B54FF0500383F31188BFF3F8
:102CE0006F8FBFF34F8F00F0CBFB28B14FF0E02385
:102CF0004FF08052C3F8042D002383F3118808BDE0
:102D00004FF0E022002313619361054B1B680549D6
:102D1000A1FB03139B09013B536107231361704718
:102D200008000020D34D621010B582B02A4B1A78EB
:102D3000D2B20192FF221A701B78DBB28DF80330F9
:102D40009DF8033003F05003244A1370244B0722EC
:102D50001A6009E0224A1368013B13609DF80330B2
:102D60005B00DBB28DF803309DF8033013F0800F69
:102D7000F0D11B4B1B68032B08D04FF0500383F39B
:102D80001188BFF36F8FBFF34F8FFEE71B02144A0A
:102D9000136003F4E0631360019BDBB20E4A13700F
:102DA0004FF0E023D3F8202D42F47002C3F8202D19
:102DB000D3F8202D42F07042C3F8202DFFF7A0FF7A
:102DC0000024084B1C60FFF7EFFE00F087FCFFF7C4
:102DD000CBFE204602B010BD00E400E098080020C1
:102DE0009C08002014000020124A12F0070F1ED089
:102DF000D11D21F00701C1F5406313440A460E4876
:102E00000260002141601344083B23F007030B4894
:102E1000036059601960991A51601360084B19607A
:102E2000084B1960084B4FF000421A6070474FF48E
:102E30004063E4E7A4080020B0140020A0080020AC
:102E4000AC140020A8140020A4140020154B1A462E
:102E50001B688342FBD3516802EB010C844509D007
:102E6000416800EB010C634509D00360904218D023
:102E7000106070474068014451601046F0E710B49C
:102E8000094C2468A3420AD05B6819444160136866
:102E90001B680360904200D0106010BC7047046053
:102EA000F8E77047B0140020A008002070B5054670
:102EB00000F0DEFA344B1B68A3B1344B1B681D4293
:102EC0004AD135B1083515F0070F02D025F00705B6
:102ED0000835002D42D02E4B1B68AB424DD32D4AF6
:102EE000146804E0FFF780FFE7E722461C466368AA
:102EF000AB4202D22368002BF7D1234B1B68A342BD
:102F00003DD0166808362368136063685B1B102B7E
:102F100010D9601910F0070F08D04FF0500383F359
:102F20001188BFF36F8FBFF34F8FFEE7436065607B
:102F3000FFF78CFF626816490B689B1A0B601649F5
:102F400009688B4201D214490B60104B1B68134374
:102F500063600023236002E0002600E0002600F00A
:102F60001BFB16F0070F0CD04FF0500383F31188B2
:102F7000BFF36F8FBFF34F8FFEE70026EFE700260A
:102F8000EDE7304670BD00BFA0080020A41400206B
:102F9000A8140020B0140020AC14002080B338B571
:102FA0000446A0F1080550F8043C164A1268134282
:102FB00008D14FF0500383F31188BFF36F8FBFF335
:102FC0004F8FFEE750F8081C41B14FF0500383F3D8
:102FD0001188BFF36F8FBFF34F8FFEE723EA020321
:102FE00040F8043C00F044FA54F8041C064A136804
:102FF0000B4413602846FFF729FF00F0CDFA38BDD7
:10300000704700BFA4140020A8140020084B1B68C0
:103010001B6823B9074B4FF0FF321A607047044B0F
:103020001B68DB68DB685A68024B1A60704700BF98
:10303000BC140020941500202DE9F047074698465F
:10304000089DDDF824900A9C266B02F18042013A2B
:1030500006EB820626F007064FF0000CBCF10F0FBE
:103060000BD811F80C2004EB0C0383F8342011F872
:103070000C3013B10CF1010CF0E7002384F843305D
:10308000062D00D90625E56265644FF0000AC4F8F4
:1030900048A0201DFFF72EFD04F11800FFF72AFDC0
:1030A0002461C5F10705A5616462C4F84CA084F8E9
:1030B00050A0424639463046FFF786FD2060B9F100
:1030C000000F01D0C9F80040BDE8F08738B50024F2
:1030D00007E004EB840293000E481844FFF7FFFC5E
:1030E0000134062CF5D90C4D2846FFF7F8FC0B4CA3
:1030F0002046FFF7F4FC0A48FFF7F1FC0948FFF708
:10310000EEFC0948FFF7EBFC084B1D60084B1C6008
:1031100038BD00BFC4140020681500207C150020B5
:103120009C150020C8150020B4150020BC140020F8
:10313000C014002010B50446FFF76CFD214A136847
:1031400001331360204B1B685BB1204B1B686BB9CC
:103150001D4B1B68DA6AE36A9A4207D81A4B1C6057
:1031600004E0194B1C601368012B28D0184A13681F
:1031700001331360E06A01238340164A11680B4350
:10318000136000EB8000211D134B03EB8000FFF761
:10319000B4FCFFF761FD0D4B1B687BB10A4B1B684C
:1031A000DA6AE36A9A4209D24FF0E0234FF0805284
:1031B000C3F8042DBFF34F8FBFF36F8F10BDFFF720
:1031C00085FFD3E750150020B8140020B01500206B
:1031D0006015002064150020C414002010B50446BA
:1031E00090F8513063B1012B11D0022B0ED04FF06B
:1031F000500383F31188BFF36F8FBFF34F8FFEE748
:10320000006BFFF7CBFE2046FFF7C8FE10BDFFF7AF
:10321000C5FEFBE70F4B1B68D3B110B5FFF7FAFCF7
:103220000D4BDB68DC68201DFFF78BFC0B4A136835
:10323000013B1360074A1368013B1360FFF70CFD65
:103240002046FFF7CBFF034B1B68002BE6D110BDD8
:10325000704700BF54150020C815002050150020ED
:1032600008B5FFF7D7FF074B1B68012BF9D94FF0C3
:10327000E0234FF08052C3F8042DBFF34F8FBFF30C
:103280006F8FEEE7C414002070B504460D461D4B49
:103290001E681D4B18680430FFF753FC50B91A4BD9
:1032A0001B68DA6A012303FA02F218490B6823EA61
:1032B00002030B60B4F1FF3F0DD03444124B1B6886
:1032C0005C60A64210D9124B18680F4B1968043184
:1032D000FFF71EFC70BD002DEFD00B4B19680431B9
:1032E0000C48FFF70AFCF5E70B4B1868064B19680A
:1032F0000431FFF70DFC094B1B68A342EAD9074BC9
:103300001C60E7E7DC150020B814002064150020DD
:10331000C0140020B4150020BC1400209415002017
:1033200030B587B00B9C7CB10C9DB5B1542504958C
:10333000049D542D1AD04FF0500383F31188BFF32E
:103340006F8FBFF34F8FFEE74FF0500383F3118869
:10335000BFF36F8FBFF34F8FFEE74FF0500383F340
:103360001188BFF36F8FBFF34F8FFEE70C9D2C6367
:10337000022485F8514000240394029505AC019481
:103380000A9C0094FFF758FE0C98FFF7D3FE0598AF
:1033900007B030BD2DE9F04385B007468846144696
:1033A0001E469000FFF782FD00B381465420FFF7D0
:1033B0007DFD0546B0B1C0F83090E5B1002385F839
:1033C0005130039302950D9B01930C9B0093334660
:1033D000224641463846FFF72FFE2846FFF7AAFE51
:1033E000012005E04846FFF7D9FDE6E74FF0FF3042
:1033F00005B0BDE8F0834FF0FF30F9E710B588B0B5
:1034000000240594069407AA06A905A8FDF774FAF6
:10341000059B0293069B019300942346079A0E494D
:103420000E48FFF77DFF0E4B186090B14FF0500330
:1034300083F31188BFF36F8FBFF34F8F094B4FF0AA
:10344000FF321A60084B01221A60084B1C60FFF71C
:103450006BFC08B010BD00BFCC3900086132000819
:103460009015002094150020B0150020DC150020D8
:10347000024A136801331360704700BF5C150020D7
:10348000F8B53A4B1B68002B64D1394B1D680135E8
:103490001D60C5B9374B1B681B6843B14FF0500323
:1034A00083F31188BFF36F8FBFF34F8FFEE7314A6D
:1034B0001168314B186810601960304A1368013385
:1034C0001360FFF7A3FD2E4B1B68AB4238D90027D2
:1034D0002C4B1B68DB6A03EB83039A002A4B9B5837
:1034E000012B3CD901273AE00127224B1B681B68BE
:1034F00043B3204B1B68DB68DC6863689D4226D3BE
:10350000261D3046FFF71DFBA36A1BB104F118000E
:10351000FFF717FBE36A01229A401C49086802433F
:103520000A6003EB83039A00314617481044FFF703
:10353000E4FAE26A134B1B68DB6A9A42D4D2D4E7FE
:103540000027D2E70E4B4FF0FF321A60C0E70C4A5B
:103550001360BDE70E4A13680133136000270D4B5B
:103560001B6803B101273846F8BD00BF5C15002079
:10357000DC150020BC140020C01400209815002089
:1035800094150020B8140020C414002064150020F5
:1035900058150020E015002038B5354B1B6843B99D
:1035A0004FF0500383F31188BFF36F8FBFF34F8F3A
:1035B000FEE7FFF72FFB2E4B1A68013A1A601B68D3
:1035C000002B4FD12B4B1B680BB900244BE0002480
:1035D000294B1B681BB3284BDB68DC6804F118001F
:1035E000FFF7AFFA251D2846FFF7ABFAE06A012383
:1035F0008340224A11680B43136000EB8000294688
:103600001F4B03EB8000FFF778FAE26A1D4B1B6843
:10361000DB6A9A42DCD31C4B01221A60D8E70CB15A
:10362000FFF7F4FC194B1C6884B9174B1C68D4B124
:103630004FF0E0234FF08052C3F8042DBFF34F8FBB
:10364000BFF36F8F01240EE0013C07D0FFF718FF96
:103650000028F9D00C4B01221A60F5E70B4B002231
:103660001A60E2E70024FFF7F7FA204638BD00BFF2
:103670005C150020501500209C15002064150020CA
:10368000C4140020B8140020E015002058150020B4
:1036900010B5A8B10446104B1B6843B14FF050035E
:1036A00083F31188BFF36F8FBFF34F8FFEE7FFF7F0
:1036B000DFFE00212046FFF7E7FDFFF76DFF48B969
:1036C0004FF0E0234FF08052C3F8042DBFF34F8F2B
:1036D000BFF36F8F10BD00BF5C150020204B1B682F
:1036E0001BB1204B01221A6070471E4B00221A604A
:1036F0001D4B1B68B3FA83F3DBB2C3F11F0303EB6B
:1037000083018A0019498A5842B94FF0500383F364
:103710001188BFF36F8FBFF34F8FFEE7134903EBA1
:10372000830082000A4450684068506003EB830CB9
:103730004FEA8C0208321144884209D003EB83031C
:103740009A000A4B13445B68DA68094B1A607047A9
:10375000406862469100054A0A445060EEE700BFA7
:103760005C150020E015002064150020C414002022
:10377000B814002070B50D4E0D4D761BB61006D056
:10378000002455F8043B01349847A642F9D1094E6C
:10379000094D00F0D5F8761BB61006D0002455F878
:1037A000043B01349847A642F9D170BDD8390008CE
:1037B000D8390008E0390008D8390008830730B547
:1037C00048D0541E002A3FD00346CAB201E0013C53
:1037D0003AD303F8012B9D07F9D1032C2DD9CDB293
:1037E00045EA05250F2C45EA054536D9A4F1100216
:1037F00022F00F0C03F1200EE6444FEA121C03F1F5
:10380000100242E9045542E9025510327245F8D1DE
:103810000CF1010214F00C0F03EB021204F00F0C78
:1038200013D0ACF1040323F003030433134442F830
:10383000045B9342FBD10CF003042CB1CAB21C44CC
:1038400003F8012B9C42FBD130BD64461346002C8B
:10385000F4D1F9E703461446BFE71A46A446E0E769
:10386000024B13B1024800F005B870470000000099
:1038700081380008002301461A46184600F01AB89D
:1038800038B5084B084D5B1B9C1007D0043B1D440A
:10389000013C55F804399847002CF9D1BDE838406F
:1038A00000F054B8E4390008E0390008704700BF60
:1038B000704700BF2DE9F047DFF87CA00646DAF834
:1038C000000098460F469146FFF7F0FF1B4B1B6820
:1038D000D3F8484124B365681F2D26DC5EB96B1C04
:1038E0000235DAF80000636044F82570FFF7E0FF66
:1038F0000020BDE8F087012304EB8501C1F8889022
:10390000D4F88821AB401A43022EC4F88821C1F8AC
:103910000881E4D1D4F88C211343C4F88C31DEE75C
:1039200003F5A674C3F84841D5E7DAF80000FFF7BD
:10393000BFFF4FF0FF30DCE740040020D43900081F
:10394000F8B500BFF8BC08BC9E467047F8B500BF8C
:08395000F8BC08BC9E4670475C
:1039580090390008DD0800080000000000000000A1
:1039680080000000000000000000000098390008F6
:10397800EB080008FDFF00000000000080000000C8
:1039880000000000000000005461736B303100003B
:103998005461736B3032000000000000000000002A
:1039A80001020304060708090000000001020304DD
:1039B80002030405060708090A0B0C0D0E0F101068
:1039C8000000000049444C45000000001800002099
:0839D800613800083501000808
:0439E00011010008C9
:1039E4000000C03F0000B4430024F40001000000C4
:1039F40010000000AAAAAAAA0000000004030020E4
:103A04006C030020D403002000000000000000002C
:103A140000000000000000000000000000000000A2
:103A24000000000000000000000000000000000092
:103A34000000000000000000000000000000000082
:103A44000000000000000000000000000000000072
:103A54000000000000000000000000000000000062
:103A64000000000000000000000000000000000052
:103A74000000000000000000000000000000000042
:103A84000000000000000000000000000000000032
:103A94000000000000000000000000000000000022
:103AA40001000000000000000E33CDAB34126DE6BF
:103AB400ECDE05000B000000000000000000000028
:103AC40000000000000000000000000000000000F2
:103AD40000000000000000000000000000000000E2
:103AE40000000000000000000000000000000000D2
:103AF40000000000000000000000000000000000C2
:043E2400E415002081
:040000050800104D92
:00000001FF
