:020000040800F2
:10000000D00800201922000801010008030100089F
:10001000070100080B0100080F01000800000000A4
:1000200000000000000000000000000013010008B4
:100030001501000800000000170100081901000860
:10004000332200083322000833220008332200083C
:10005000332200083322000833220008332200082C
:10006000332200083322000833220008332200081C
:10007000332200083322000833220008332200080C
:1000800033220008332200083322000833220008FC
:1000900033220008332200083322000833220008EC
:1000A00033220008332200083322000833220008DC
:1000B000950E00087D0E0008D50A000833220008BE
:1000C00033220008332200083322000833220008BC
:1000D000332200089B070008DB210008BB21000831
:1000E000651F00083322000833220008DFF80CD017
:1000F00004F05EFC0048004735030008D0080020EB
:10010000704700BFFEE700BFFEE700BFFEE700BF8D
:10011000FEE77047704770477047000010B500F069
:1001200093FB00F0C3FB00F027FA4FF4E13000F03E
:10013000F6FA4FF4966001F0A3FF00F087FA00F0A2
:10014000CBFF00F0DFFD00F02AFE01F0DEFD01F044
:1001500064F901F06DFE00F0B1FE41F61F4164202C
:1001600001F03CF8002141F61F4000F059FF00204B
:100170007949088078490C3908804FF4FA6000F01A
:1001800038FA10BD10B575480068012805D10A205D
:100190007349086073490860CBE070480068022822
:1001A00005D132206E4908606E490860C1E06B4895
:1001B0000068032809D1002069490860694908607E
:1001C0000021084600F09AFEB3E064480068042865
:1001D00006D16FF009006249086062490860A8E032
:1001E0005E480068052806D16FF031005C49086060
:1001F0005C4908609DE059480068062809D1002044
:1002000057490860574908600021084600F076FE0B
:100210008FE052480068072804D14FF0FF30524960
:10022000086086E04D48006808280CD14F480068F7
:10023000012804D100204E4908604C4908600A207A
:100240004949086075E04548006809280CD14948CB
:100250000068012804D1002045490860454908602C
:1002600064204149086064E03C4800680A2809D1DC
:1002700000203B4908603B4908600021084600F027
:100280003DFE56E0354800680B280CD13A4800681E
:10029000012804D100203649086037490860012050
:1002A0003149086045E02D4800680C280CD13348DE
:1002B0000068012804D100202D4908602F490860FA
:1002C00014202949086034E0244800680D2823D10F
:1002D0002B480068012806D10020254908602849DC
:1002E00008602849086014201F49086026480068F3
:1002F000401C2549086008460068B0F57A7F18D18F
:1003000020480068142814DA002008601D4800689E
:10031000401C1C4908600CE0104800680E2808D1F9
:1003200000200F4908600F4908600021084600F0CE
:10033000E5FD10BDFFF7F2FE0DE014480268094824
:10034000016813A004F072FB01F092FDFFF71AFFA1
:10035000012000F0BCFAF0E7402C01404C000020E6
:10036000180000201C0000208C000020C00000208D
:100370009000002054000020BC000020C400002099
:100380005000002088000020580000200C000020B1
:1003900025642C25640A00000CB500200190009013
:1003A0006C48006840F480306A49086000BF6948C2
:1003B000006800F4003000900198401C0190009803
:1003C00018B90198B0F5A06FF1D16248006800F447
:1003D000003010B10120009001E000200090009852
:1003E000012843D15C48006840F010005A49086079
:1003F0000846006820F0030008600846006840F0E6
:100400000200086053484068524948600846406806
:1004100048600846406840F480604860084640688C
:1004200020F47C1048600846406840F4E8104860BA
:100430000846006840F08070086000BF45480068CA
:1004400000F000700028F9D04248406820F0030016
:10045000404948600846406840F00200486000BFDC
:100460003C48406800F00C000828F9D10CBD10B5DC
:10047000FFF792FF10BD10B53648006840F001004C
:1004800034490860084640683449084031494860AA
:1004900008460068324908402E490860084600684E
:1004A00020F4802008600846406820F4FE00486080
:1004B0004FF41F008860FFF7DAFF4FF00060294912
:1004C000086010BD10B5002100200022214B5B68A0
:1004D00003F00C0121B1042906D0082928D107E036
:1004E000214B224C236027E01F4B204C236023E04C
:1004F000184B5B6803F47010164B5B6803F4803292
:10050000022303EB904022B9194B4343174C23605D
:100510000DE0104B5B6803F4003323B1144B4343ED
:10052000124C236003E0104B4343104C236003E064
:100530000D4B0E4C236000BF00BF064B5B68C3F33E
:1005400003130C4CE15C094B1B68CB40074C236048
:1005500010BD000000100240002002400000FFF823
:10056000FFFFF6FE08ED00E000127A0060000020B8
:1005700000093D006400002010B56FF0040001F098
:10058000ACFE2E4800682E49B0FBF1F02D490870F2
:100590000846007800EB4001C1EBC0104FF6FF7138
:1005A00001EAC0002849088010BD0146254A12789A
:1005B0004A434FF0E0235A6100229A611A461269B9
:1005C00042F001021A6100BF4FF0E022106900F012
:1005D00001021AB100F48032002AF5D04FF0E02277
:1005E000126922F001024FF0E0231A6100229A61A1
:1005F00070470146144A12884A434FF0E0235A617B
:1006000000229A611A46126942F001021A6100BF83
:100610004FF0E022106900F001021AB100F48032BC
:10062000002AF5D04FF0E022126922F001024FF0CB
:10063000E0231A6100229A617047000060000020E8
:1006400000127A00740000207600002008B54FF4F4
:10065000A06001F0F3FD17208DF8000001208DF857
:1006600001008DF802008DF80300684601F0EBFDF3
:1006700028208DF8000001208DF801008DF802007F
:100680008DF80300684601F0DEFD25208DF800009E
:1006900001208DF801008DF802008DF803006846F6
:1006A00001F0D1FD26208DF8000001208DF8010019
:1006B00002208DF8020001208DF80300684601F049
:1006C000C2FD27208DF8000001208DF801000320D5
:1006D0008DF8020001208DF80300684601F0B3FD9B
:1006E0001E208DF8000000208DF801008DF802001A
:1006F00001208DF80300684601F0A5FD08BD00004B
:10070000014600BF704700BF494A128802F040020C
:10071000002AF9D0C2B2464B1B1D1A80704710B593
:1007200086B00446012144F2050002F0C7FB4FF4F5
:100730000070ADF8140003208DF8160018208DF815
:10074000170005A93B4802F0FDF84FF48060ADF8B2
:10075000140004208DF8170005A9364802F0F2F8BD
:1007600001940020ADF80800ADF80A00ADF80C00C7
:10077000ADF810000C20ADF80E0001A92C4803F0D4
:1007800052FB012240F22551294803F0E4FB0121EC
:10079000274803F0D4FB06B010BD10B540F2255138
:1007A000234803F0BDFC002841D0214803F038FC69
:1007B000C4B2FF2C05D12048006840421E490860A1
:1007C00004E01D48006860431C4908601C4800782C
:1007D00000F0800058BB1A48007800F0400060B17B
:1007E0000A2C03D000201649087020E01448007835
:1007F00040F080001249087019E00D2C06D1104815
:10080000007840F040000E49087010E00C48007875
:1008100000F03F000B490C5409480078401C08497F
:100820000870084600783F2801DD0020087010BDE0
:10083000003801400008014080000020180000201E
:100840007C0000208C04002008B50121102002F05B
:1008500035FB4FF48040ADF8000010208DF8030008
:1008600003208DF8020069460C4802F06BF808BDC1
:1008700018B900210A4A11600FE00A490968491CA9
:10088000084A1160814208D105490968C943064AEE
:10089000C2F8B8110021034A1160704700100140EE
:1008A000B8012242840000200000224208B5012144
:1008B000102002F003FB4FF40040ADF80000482088
:1008C0008DF803006946114802F03CF808BD10B5E8
:1008D00004464FF400410D4802F0C7F8A0B90120CA
:1008E0000B49086000BF0A4800680028FBD000BF21
:1008F0004FF40041054802F0B8F80028F8D0054848
:100900000068401C03490860002010BD0010014031
:10091000A40000204C0000202DE9F05F04460D46A5
:10092000601BD84908600846006803F08DFE8346C6
:10093000D5480168584603F08FFC8046D1490968C4
:10094000D24A1268881A03F07FFE8346D0480168B5
:10095000584603F081FC8146414603F025FC0746DA
:10096000CC48006803F070FE8246394603F01CFC58
:10097000064603F095FEC7490860C2480068C349AF
:100980000860C4480068BDE8F09F01EB410202EB3B
:100990000112B0EB820F03DD4C2201FB02F00DE0EF
:1009A0004A4202EB420303EB0212B0EB820F04DA7D
:1009B0004A424C2302FB03F000E000BF70472DE9E0
:1009C000F84F07460D46B449384603F045FC009001
:1009D000284603F039FE8046009903F03AFC0446AD
:1009E0002146AE48006803F0DFFBAC490860AC4923
:1009F000AA48006803F0F6FE02D2A948A749086099
:100A0000A849A648006803F0E3FE02D2A548A3491E
:100A10000860A5480168204603F018FC8246A348F8
:100A20000168504603F018FC80469C480168A048C5
:100A3000006803F011FC824621469E48006803F0DE
:100A40000BFC8346514603F0AFFB8146414603F061
:100A5000ABFB064694480460304603F021FEBDE837
:100A6000F88F2DE9F05F04460D46601B924908603F
:100A70000846006803F0E8FD83468348016858464D
:100A800003F0EAFB80468C4909688C4A1268881A90
:100A900003F0DAFD83467E480168584603F0DCFB2C
:100AA0008146414603F080FB07468548006803F015
:100AB000CBFD8246394603F077FB064603F0F0FD96
:100AC0007F4908607C4800687C4908607C48006871
:100AD000BDE8F09F10B501217A4803F04CF90028D9
:100AE00055D00121774803F057F96420FFF7C0FE85
:100AF000032000F09EF9404273490860022000F094
:100B000098F94042714908606F49087801F0F7FA96
:100B10006F4800686C49096808446D4908606D4871
:100B20000078401C6B490870084600780A2805D1F7
:100B30000020087000F029FB6749086067480068DA
:100B400001280DD166480068401C654908600846C8
:100B50000068032804D100206049086060490860EB
:100B600060480068052813DC5F4801685748006842
:100B7000FFF777FF5D49086000F007FA5648006804
:100B800000F02AFA59480168002000F0B7F978E02F
:100B900054480068072807D052480068082803D046
:100BA00050480068092811D15148006803F04CFDF5
:100BB0000446474801682046FFF701FF4D49086099
:100BC00000214C48006800F099F95AE04548006857
:100BD0000B2807D0434800680C2803D04148006820
:100BE0000D282CD14248006803F02EFD04463848F9
:100BF00001682046FFF7E3FE3E4908603E48016871
:100C00003C480068FFF7C1FE3A49086008460068A2
:100C10004C2190FBF1F037490860084601682A48EA
:100C20000068FFF779FE35490860084600684042D1
:100C3000086000213148006800F060F921E029488F
:100C400000680F2814D1214801681F4800684042FD
:100C5000FFF762FE2949086000F097F91E48006816
:100C600000F0BAF900212548006800F047F908E0D3
:100C70000020234908601C4908600021084600F054
:100C80003DF910BDCC000020B4000020D4000020AD
:100C9000B0000020D00000200000C344E800002085
:100CA00000803B4400803BC4E4000020A000002002
:100CB0009C00002098000020D8000020E0000020C8
:100CC000DC00002000080040080000200C0000208C
:100CD00090000020C800002000000020A400002098
:100CE000A80000204C0000201C0000201400002060
:100CF0008C000020940000208800002010000020BC
:100D00001800002000B587B00121084602F0E3F882
:100D10000121042002F0D2F80320ADF800000420E5
:100D20008DF803006946614801F00CFE04A802F04A
:100D300029FD0020ADF810004FF6FF70ADF814004B
:100D40000020ADF81600ADF8120004A94FF0804065
:100D500002F0ECF900231A4603214FF0804002F024
:100D6000F4FD01A802F021FD0A20ADF80C0001A954
:100D7000400702F06EFC0121880702F0F9FF012212
:100D80001146900702F049FD00214FF0804002F02B
:100D9000BDFF0121880702F025FD07B000BD00B5A9
:100DA00087B00121022002F096F80121042002F010
:100DB00085F8C020ADF8000004208DF803006946D6
:100DC0003B4801F0BFFD04A802F0DCFC0020ADF8B8
:100DD00010004FF6FF70ADF814000020ADF81600BB
:100DE000ADF8120004A9334802F0A0F900231A4616
:100DF0000321304802F0A9FD01A802F0D6FC0A2028
:100E0000ADF80C0001A92B4802F023FC0121294870
:100E100002F0AEFF01221146264802F0FEFC00213E
:100E2000244802F073FF0121224802F0DBFC07B0E6
:100E300000BD0146022904D003290BD0042919D191
:100E400011E04FF08042928C10B200224FF08043AC
:100E50009A8411E0174A2432128810B20022154BEE
:100E600024331A8008E0144A128810B20022124B70
:100E70001A8001E0002000BF00BF70470D4810300D
:100E800000880C481030008820F00100094910311A
:100E9000088070474FF08040008A4FF08040008A01
:100EA00020F001004FF080410882704700080140A7
:100EB000000C0140000400402408004008B5012156
:100EC000082001F0FBFF4FF47040ADF80000102047
:100ED0008DF8030003208DF802006946474801F0B1
:100EE00031FD4FF47041454801F0D9FD08BD014680
:100EF000002901DA484200E00846704700B5034681
:100F00000A46002B07DA01203D49086000203D49D0
:100F1000C1F8BC0110E0002B07DD00203849086053
:100F200001203849C1F8BC0106E001203449091DFF
:100F300008603449C1F8B8011846FFF7D8FF3249B4
:100F40000880002A08DA01202D49091F08600020C6
:100F50002C49C1F8B00111E0002A08DD0020284921
:100F6000091F086001202749C1F8B00106E00120EF
:100F70002349091F08602349C1F8B0011046FFF753
:100F8000B6FF21490C31088000BD20480068204987
:100F9000884203DA1E4864381C4908601B48006810
:100FA00041F6F421884203DD41F6583017490860C4
:100FB000184800681649884203DA1548643815490C
:100FC00008601448006841F6F421884203DD41F6C8
:100FD000583010490860704770B50446204603F049
:100FE000B0FB05460C4A0D4B03F0BEFB04D20020BB
:100FF000064908600749086070BD0000000C014008
:10100000B881214200802142342C01401000002090
:101010000CE5FFFF140000209A99999999991940BD
:1010200030B589B005460C460121C80201F046FFE3
:101030000121042001F042FF4FF41060ADF82000C0
:1010400018208DF8230003208DF8220008A92048DD
:1010500001F078FCADF81850ADF814400020ADF860
:101060001A00ADF8160005A91A4802F05FF86020D2
:10107000ADF804000120ADF806000020ADF80A002C
:10108000ADF80C00ADF81000ADF80800ADF8120096
:10109000ADF80E0001A90F4802F085F801A90D482E
:1010A00002F05BF901210B4802F0A8FB0821094876
:1010B00002F0C8FC0821074802F0E3FC01210548C2
:1010C00002F090FC0121034802F08CFB09B030BD16
:1010D00000080140002C014000B587B001214FF409
:1010E000027001F0EBFE4FF4004001F04BFE0120D6
:1010F000ADF8040000208DF8070001A9324801F086
:1011000021FC324801F008F9002002908DF80C0013
:101110008DF80D004FF46020049000200590012010
:101120008DF8180002A9294801F01DF9012127486E
:1011300001F045F9254801F064F900BF234801F0AA
:1011400065F90028FAD1214801F06AF900BF1F486B
:1011500001F06BF90028FAD107B000BD10B50446C4
:10116000072301222146194801F095F9012117486A
:1011700001F065F900BF0221144801F0D1FA0028FE
:10118000F9D0124801F0EEF910BD2DE9FC5F0820FE
:10119000FFF7E4FF009003F076FA80464FF06632E6
:1011A0000B4B03F070F9064600220A4B03F06BF973
:1011B00004460022084B03F0D8F9824603F0ECFA0B
:1011C00001900198BDE8FC9F000C01400024014003
:1011D00066660A40000026400000B0403EB5054665
:1011E0000C460121042001F076FEADF80450ADF864
:1011F00000400020ADF80600ADF802006946064840
:1012000001F094FF01224121034802F006FB012175
:10121000014802F0E7FA3EBD0008004010B54FF467
:101220008071F84801F03BFC4FF40071F54801F083
:1012300036FC4FF40071F34801F033FC4FF4807139
:10124000F04801F02EFC10BD10B54FF48071ED4850
:1012500001F025FC4FF40071EA4801F022FC4FF444
:101260000071E84801F01BFC10BD10B54FF480710F
:10127000E44801F014FC4FF48071E24801F011FCE5
:1012800010BD2DE9F04105462C464FF48071DD4834
:1012900001F007FC00261CE0274607F08007802F9E
:1012A00004D1B900D74801F0FAFB04E04FF4007113
:1012B000D44801F0F6FB6006040E4FF48071D1486B
:1012C00001F0EDFB4FF48071CE4801F0EAFB701C99
:1012D000C6B2082EE0DBBDE8F08110B50446FFF78A
:1012E0009DFF7820FFF7CDFFFFF7BFFF0020FFF73E
:1012F000C8FFFFF7BAFF2046FFF7C3FFFFF7B5FFB0
:10130000FFF7A2FF10BD10B50446FFF787FF782056
:10131000FFF7B7FFFFF7A9FF4020FFF7B2FFFFF786
:10132000A4FF2046FFF7ADFFFFF79FFFFFF78CFFFD
:1013300010BD70B504460D461DB1E0B2FFF7E3FFE6
:1013400002E0E0B2FFF7C9FF70BD70B506460024A9
:1013500018E004F1B0000021FFF7EBFF0021084680
:10136000FFF7E7FF00211020FFF7E3FF002505E06E
:1013700001213046FFF7DDFF681CC5B2802DF7DB89
:10138000601CC4B2082CE4DB70BD06E041F66501C8
:1013900000E0491E0029FCD1401E0028F6D170470C
:1013A000014605E0002001E0421CD0B27B28FBDBB7
:1013B0000A00A1F10101F5D1704770B504460D4650
:1013C00005F1B0000021FFF7B4FF102141EA14102D
:1013D0000021FFF7AEFF04F00F000021FFF7A9FF87
:1013E00070BD10B500218D20FFF7A3FF0021142050
:1013F000FFF79FFF0021AF20FFF79BFF10BD10B547
:1014000000218D20FFF795FF00211020FFF791FFAD
:101410000021AE20FFF78DFF10BD70B5002418E04D
:1014200004F1B0000021FFF784FF00210846FFF718
:1014300080FF00211020FFF77CFF002505E001213F
:101440000020FFF776FF681CC5B2802DF7DB601C1B
:10145000C4B2082CE4DB70BD70B5002418E004F1C0
:10146000B0000021FFF765FF00210846FFF761FF8C
:1014700000211020FFF75DFF002505E0012108464F
:10148000FFF757FF681CC5B2802DF7DB601CC4B2A4
:10149000082CE4DB70BD2DE9F04707460E46904668
:1014A000994600250024A8F12000C5B27F2F02DD57
:1014B0000027B01CC6B2B9F1100F24D1314638460E
:1014C000FFF77BFF002408E004EB05114E4A505C57
:1014D0000121FFF72EFF601CC4B2082CF4DB701C46
:1014E000C1B23846FFF769FF002409E004EB05119B
:1014F0000831454A505C0121FFF71BFF601CC4B254
:10150000082CF3DB12E031463846FFF756FF002483
:101510000AE005EB45013D4A02EB4101085D01216E
:10152000FFF707FF601CC4B2062CF2DBBDE8F087B2
:1015300010B50246012000E050430B00A1F1010468
:10154000E1B2F9D110BD2DE9FF5F074691461E4675
:101550000E9D4FF0000A002435E0301B401EC1B242
:101560000A20FFF7E5FFB9FBF0F00A21B0FBF1F22A
:1015700001FB1208BAF1000F14D1701EA04211DD58
:10158000B8F1000F0CD1AB4605EBDB71491001FB44
:101590000471C8B22B4620220199FFF77CFF10E0AE
:1015A0004FF0010AAB4605EBDB71491001FB0471FA
:1015B000C8B208F13001CAB22B460199FFF76BFFA0
:1015C00000BF601CC4B2B442C7DBBDE8FF9F2DE979
:1015D000F04105460E4614461F460EE022783B4673
:1015E00031462846FFF757FF05F10800C5B2782DB0
:1015F00002DD0025B01CC6B2641C20780028EDD1A5
:10160000BDE8F081000C0140E84D0008C04B000827
:101610002DE9F04180460E461546002731464046EA
:10162000FFF7CBFE00240AE0F74A02EB8511085DC4
:101630000121FFF77EFE781CC7B2601CC4B2102CDB
:10164000F2DB701CC1B24046FFF7B7FE00240CE08D
:101650006900491CEC4A02EB4111085D0121FFF7CA
:1016600068FE781CC7B2601CC4B2102CF0DBBDE869
:10167000F0812DE9F05F06460F4690461C46DDF8E6
:1016800028A04FF0000BE11704EB5171C910A4EB37
:10169000C10131B92046E11704EB5171C1F3C7050F
:1016A00006E02046E11704EB5171C910491CCDB288
:1016B0003D4615E029463046FFF77FFEB1460BE078
:1016C00059460BF1010B1AF801000121FFF731FE19
:1016D00009F1010000F0FF09C145F1DB681CC5B24A
:1016E000A542E7DBBDE8F09F2DE9FF5F86B0144619
:1016F0001D464FF0010A00200390049005904FF022
:101700000109002600BF83460022134620462946D1
:1017100003F02AF809D285F00040CDE900402046C8
:10172000019902F0D6FF064604E02046294602F061
:10173000D0FF0646304602F095FF22462B46CDE903
:10174000000102F09DFE074688460022AF4B384656
:10175000414602F098FECDE9000102F0D9FF834630
:1017600007E009EB89004FEA40090AF1010000F0A7
:10177000FF0A0A2096FBF0F090FBF9F00028F0D168
:1017800042F2107096FBF0F00A2190FBF1F201FB9F
:101790001200C0B28DF80C004FF47A7096FBF0F096
:1017A00090FBF1F201FB1200C0B28DF80D00642035
:1017B00096FBF0F090FBF1F201FB1200C0B28DF845
:1017C0000E000A2096FBF0F090FBF1F201FB1200F4
:1017D000C0B28DF80F000A2096FBF0F100FB1160FB
:1017E000C0B28DF810002E208DF811004FF47A70E1
:1017F000BBFBF0F00A21B0FBF1F201FB12008DF807
:1018000012006420BBFBF0F0B0FBF1F201FB120010
:101810008DF813000A20BBFBF0F0B0FBF1F201FBE6
:1018200012008DF814000A20BBFBF0F100FB11B090
:101830008DF8150000211498801D03AA11548946C3
:1018400008E003A810F80900303003A901F80900E6
:1018500009F10109B9F10A0FF3DB00221346204612
:10186000294602F081FF08D20AF1010000F0FF0AC8
:101870002D20CAF1050103AA50542E208DF8110025
:1018800000211498801D03AA1154CAF1050003A970
:1018900042180C23DDE90610FFF799FE0AB0BDE8F7
:1018A000F09F2DE9F04F89B0824689461746984649
:1018B000DDF84CB0012007900020049005900690C0
:1018C0000124002500BF00264FEAC9604FEA1069D5
:1018D0003846414602F0FDFE0546284602F0D3FE9A
:1018E0003A464346CDE9000102F0CAFDCDE90201C6
:1018F0000022464BDDE9020102F0C5FDCDE9000101
:1019000002F006FF064606E004EB84004400079858
:10191000401CC0B207900A20B5FBF0F0B0FBF4F019
:101920000028F1D142F21070B5FBF0F00A21B0FBB3
:10193000F1F201FB12008DF810004FF47A70B5FB44
:10194000F0F0B0FBF1F201FB12008DF81100642001
:10195000B5FBF0F0B0FBF1F201FB12008DF81200C4
:101960000A20B5FBF0F0B0FBF1F201FB12008DF89C
:1019700013002E208DF815004FF47A70B6FBF0F0AE
:10198000B0FBF1F201FB12008DF816006420B6FBEB
:10199000F0F0B0FBF1F201FB12008DF817000A2005
:1019A000B6FBF0F0B0FBF1F201FB12008DF818006D
:1019B0000A20B6FBF0F100FB11608DF81900002140
:1019C0000BF1060004AA1154002405E004A8005DF0
:1019D000303004A90855641C0A2CF7DB2E208DF842
:1019E000150000210BF1060004AA11541298C0F151
:1019F000050004A942180C2351464846FFF7E7FDAD
:101A000009B0BDE8F08F0000EC0000200088C34062
:101A10002DE9F04105460F46164600BF05EB45018E
:101A20004906080E3946FFF7C8FC00240BE006F112
:101A3000100101EB4101FB4A02EB4101085D01216C
:101A4000FFF777FC641C062CF1DBBDE8F0812DE983
:101A5000F04105460F46164600BF05EB4501490615
:101A6000080E3946FFF7A9FC002409E006EB460101
:101A7000EC4A02EB4101085D0121FFF75AFC641CAE
:101A8000062CF3DBBDE8F0812DE9F04705468946D9
:101A900016463446002C22DA6442642094FBF0F1AE
:101AA00000FB11400A2190FBF1F0C7B20A2094FB21
:101AB000F0F100FB114000F0FF080D2249462846D6
:101AC000FFF7C5FF691CC8B23A464946FFF7A0FFB9
:101AD000A91CC8B242464946FFF79AFF20E064209D
:101AE00094FBF0F100FB11400A2190FBF1F0C7B22A
:101AF0000A2094FBF0F100FB114000F0FF080B22DC
:101B000049462846FFF7A3FF691CC8B23A46494632
:101B1000FFF77EFFA91CC8B242464946FFF778FF8F
:101B2000BDE8F0872DE9F04705468A46164634465B
:101B3000002C2DDA64420D2251462846FFF787FF1C
:101B40000A2094FBF0F100FB1140C7B20A2094FB7D
:101B5000F0F00A2190FBF1F201FB120000F0FF0807
:101B6000642094FBF0F000F0FF09E91CC8B23A468B
:101B70005146FFF74DFFA91CC8B242465146FFF738
:101B800047FF691CC8B24A465146FFF741FF2BE0A8
:101B90000B2251462846FFF75AFF0A2094FBF0F12A
:101BA00000FB1140C7B20A2094FBF0F00A2190FB21
:101BB000F1F201FB120000F0FF08642094FBF0F04A
:101BC00000F0FF09E91CC8B23A465146FFF720FF72
:101BD000A91CC8B242465146FFF71AFF691CC8B299
:101BE0004A465146FFF714FFBDE8F0872DE9F05F44
:101BF00005468B4616463446002C00DA64424FF404
:101C00007A7094FBF0F0C7B24FF47A7094FBF0F165
:101C100000FB1140642190FBF1F000F0FF0864200C
:101C200094FBF0F100FB11400A2190FBF1F000F071
:101C3000FF090A2094FBF0F100FB114000F0FF0ABD
:101C40003A4659462846FFF7E3FE691CC8B24246A9
:101C50005946FFF7DDFEA91CC8B24A465946FFF7B0
:101C6000D7FEE91CC8B252465946FFF7D1FEBDE87F
:101C7000F09F2DE9F05F05460E46144642F21070C3
:101C8000B4FBF0F0C7B242F21070B4FBF0F100FB0D
:101C900011404FF47A71B0FBF1F000F0FF080846F4
:101CA000B4FBF0F100FB11406421B0FBF1F000F057
:101CB000FF096420B4FBF0F100FB11400A21B0FBE6
:101CC000F1FA0A20B4FBF0F100FB114B3A46314621
:101CD0002846FFF79DFE691CC8B242463146FFF711
:101CE00097FEA91CC8B24A463146FFF791FEE91C8F
:101CF000C8B252463146FFF78BFE291DC8B25A467C
:101D00003146FFF785FEBDE8F09F08B501210920A7
:101D100001F0D4F80121444800F0E5FE4FF4407092
:101D2000ADF8000010208DF8030003208DF80200AC
:101D300069463E4800F006FE4FF440713B4800F013
:101D4000AEFE4FF44870FEF754FC0021AE20FFF7C2
:101D5000F0FA00210846FFF7ECFA00211020FFF707
:101D6000E8FA00214020FFF7E4FA0021B020FFF755
:101D7000E0FA00218120FFF7DCFA0021FF20FFF7C5
:101D8000D8FA0021A120FFF7D4FA0021A620FFF7FE
:101D9000D0FA0021A820FFF7CCFA00213F20FFF75E
:101DA000C8FA0021C820FFF7C4FA0021D320FFF7AA
:101DB000C0FA00210846FFF7BCFA0021D520FFF742
:101DC000B8FA00218020FFF7B4FA0021D820FFF7ED
:101DD000B0FA00210520FFF7ACFA0021D920FFF767
:101DE000A8FA0021F120FFF7A4FA0021DA20FFF77A
:101DF000A0FA00211220FFF79CFA0021DB20FFF758
:101E000098FA00213020FFF794FA00218D20FFF787
:101E100090FA00211420FFF78CFA0021AF20FFF781
:101E200088FA08BDC04B000800023000000C0140D9
:101E300010B50C2326A201210020FFF7C8FB0C23BC
:101E400024A201213C20FFF7C2FB0C2322A2022185
:101E50000020FFF7BCFB0C2321A202213C20FFF74E
:101E6000B6FB0C2320A203210020FFF7B0FB10BD1E
:101E700008B50C20022300901D4803210268192098
:101E8000FFF761FB0C20022300901A480121026831
:101E90001920FFF758FB0C2002230090164801215F
:101EA00002685520FFF74FFB0C20022300901348D7
:101EB000194602681920FFF746FB0C200223009008
:101EC0000E48194602685520FFF73DFB08BD00008B
:101ED0004C3A0000523A00004C5F533A00000000B8
:101EE000525F533A000000004D4F44453A00000055
:101EF0004C000020080000200C00002018000020EA
:101F00000EB50121092000F0D9FF4FF48060ADF833
:101F1000080010208DF80B0003208DF80A0002A99C
:101F20004E4800F00FFD4FF40060ADF80800282087
:101F30008DF80B0002A9494800F004FD0B21012097
:101F400000F016FE4FF40060009000208DF80400B1
:101F500008208DF8050001208DF80600684600F085
:101F600011FC0EBD2DE9FE4F3D4800683D49B0FB18
:101F7000F1F000F0FF0A4FF0000910203A49087014
:101F80000A20FEF712FB4FF4006000F061FC00280D
:101F900042D04FF6FF704FF0E0214861886108465B
:101FA000006940F00100086100BF4FF400612B4858
:101FB00000F05BFD0028F8D14FF0E0208469006953
:101FC00020F001004FF0E02108614FF6FF71081B7F
:101FD00002F043FB0546494602F0E6F881465046CA
:101FE00002F03BFB21490190484602F035F9009090
:101FF000019902F063F91E49029002F05FF98346ED
:1020000002F09FFB074600221A4B02F0AEFA05468B
:1020100002F0C2FB184908604FF4006000F029FC90
:10202000002016490870BDE8FE8F10B513480078EF
:10203000012800D110BD4FF48061084800F02FFD49
:102040001420FEF7B2FA4FF48061044800F029FD35
:1020500001200A49087000BFECE70000000C0140B5
:102060006000002000127A00220000200000AA4335
:1020700000007A4400001D40040000206C04002091
:1020800010B586B004460121042000F017FF01219D
:10209000480400F020FF0420ADF8140003208DF860
:1020A000160018208DF8170005A9544800F04AFCC6
:1020B0000820ADF8140004208DF8170005A94F483A
:1020C00000F040FC01940020ADF80800ADF80A00D3
:1020D000ADF80C00ADF810000C20ADF80E0001A911
:1020E000474801F0A0FE012240F22551444801F08A
:1020F00032FF0121424801F022FF06B010BD4049E5
:10210000091D088000BF3E49098801F040010029EF
:10211000F9D0704710B586B004460121082000F0C0
:10212000CDFE0121880400F0D6FE4FF48060ADF8AA
:10213000140003208DF8160018208DF8170005A94B
:10214000304800F0FFFB4FF40060ADF814000420AD
:102150008DF8170005A92B4800F0F4FB019400202E
:10216000ADF80800ADF80A00ADF80C00ADF81000AD
:102170000C20ADF80E0001A9234801F054FE012205
:1021800040F22551204801F0E6FE01211E4801F0F1
:10219000D6FE06B010BD412806DB482804DCA0F1BD
:1021A00040011A4A117007E0082802DC174908703C
:1021B00002E00021154A1170704710B540F2255118
:1021C000114801F0ADFF38B10F4801F029FF104967
:1021D00008600878FFF7DFFF10BD10B540F2255109
:1021E000074801F09DFF38B1054801F019FF094982
:1021F00008600878FFF7CFFF10BD0000000801401D
:1022000000440040000C0140004800402200002033
:1022100070040020740400200648804706480047E8
:10222000FEE7FEE7FEE7FEE7FEE7FEE7FEE7FEE786
:10223000FEE7FEE777040008ED000008314901439E
:10224000314A1160704770B5002100230F22C47815
:1022500004B32D4C246804F4E064C4F5E064210A5E
:10226000C1F10403CA40447804FA03F184781440AD
:1022700021430901254C0678A155047804F01F0577
:102280000124AC4005786D11AD0005F1E025C5F8DD
:10229000004109E0047804F01F050124AC401C4D06
:1022A0000678761145F8264070BD1A4A0A40024366
:1022B000154B1B1F1A60704739B1134A121D126863
:1022C0000243114B1B1D1A6006E00F4A121D1268D3
:1022D00082430D4B1B1D1A607047042808D14FF034
:1022E000E021096941F004014FF0E022116107E0AB
:1022F0004FF0E021096921F004014FF0E022116163
:10230000704700000000FA050CED00E000E400E07A
:1023100080E100E080FFFF1F10B50446FA488442C8
:1023200008D10121401500F0E3FD0021601500F007
:10233000DFFD17E0F548844208D10121001500F0C7
:10234000D7FD0021201500F0D3FD0BE0F0488442BA
:1023500008D10121C80300F0CBFD00214FF400405B
:1023600000F0C6FD10BD30B50246002000235068C5
:10237000E84C20400D790C6844EA05242043506065
:102380009068E54C2040D1E902542C434D7944EA51
:10239000450420439060D06A20F470000C7C641ED9
:1023A000E4B2234340EA0350D06230BD0021016013
:1023B000017141718160C16001210174704721B1D7
:1023C000826842F00102826003E0826822F001022A
:1023D0008260704721B1826842F48072826003E0BB
:1023E000826822F480728260704710B50023CBB2FD
:1023F0001AB144681C43446002E044689C43446052
:1024000010BD816841F008018160704701460020DD
:102410008A6802F008020AB1012000E0002070473B
:10242000816841F0040181607047014600208A689C
:1024300002F004020AB1012000E00020704721B13F
:10244000826842F4A002826003E0826822F4A00263
:1024500082607047014600208A6802F480020AB157
:10246000012000E00020704710B50A46002100233B
:10247000416821F46041531E41EA4331416010BD7F
:1024800021B1426842F40062426003E0426822F4F3
:10249000006242607047F0B504460D4600200021FE
:1024A000092D11DDE068A5F10A0606EB46070726AF
:1024B00006FA07F18843A5F10A0606EB460603FA79
:1024C00006F10843E0600CE0206905EB45070726AC
:1024D00006FA07F1884305EB450603FA06F10843BF
:1024E0002061072A0FDA606B561E06EB86071F264F
:1024F00006FA07F18843561E06EB860605FA06F132
:102500000843606322E00D2A0FDA206BD61F06EB2A
:1025100086071F2606FA07F18843D61F06EB8606B4
:1025200005FA06F10843206310E0E06AA2F10D0607
:1025300006EB86071F2606FA07F18843A2F10D066F
:1025400006EB860605FA06F10843E062F0BD21B10C
:10255000826842F48012826003E0826822F4801272
:10256000826070470146C86C80B2704766484C3044
:102570000068704721B1426842F48062426003E023
:10258000426822F480624260704721B1426842F49E
:102590008052426003E0426822F4805242607047F9
:1025A0000A460021816821F4E041114381607047AF
:1025B00021B1826842F40042826003E0826822F422
:1025C00000428260704721B1826842F40212826048
:1025D00003E0826822F40212826070470146002004
:1025E0008A6802F400120AB1012000E0002070475E
:1025F000F0B504461546002000220026092911DD09
:10260000E068A1F10A0707EB470C072707FA0CF26D
:102610009043A1F10A0707EB470703FA07F21043BB
:10262000E0600CE0206901EB410C072707FA0CF28F
:10263000904301EB410703FA07F210432061A06BBE
:10264000C0F30156EF1C06F1010CA7EB0C0707EBDA
:10265000870C1F2707FA0CF29043EF1C06F1010CC0
:10266000A7EB0C0707EB870701FA07F21043A063FB
:10267000F0BD10B50A4600210023816B21F4401102
:10268000531E41EA0351816310BD08B50023009336
:102690000090009B0B440093009B1A6008BD08B596
:1026A000024600200090009201F12800009B18448F
:1026B00000900098006880B208BD0A460021416879
:1026C000164B194011434160704741628262704766
:1026D0000A460021416821F01F0111434160704703
:1026E00040B109490831096841F40001064A08323D
:1026F000116007E004490831096821F40001024A29
:102700000832116070470000002401400028014099
:10271000003C0140FFFEF0FFFDF7F1FFFFFD3FFF32
:102720000246002013680B400BB1012000E000209E
:102730007047CA430260704770B50246002000230C
:1027400000240B125568CEB205EA060415681D4038
:1027500015B10CB1012000E0002070BD00220A126A
:10276000D343036070470000002044490860091DFE
:102770000860091D0860091D086041483F4914317F
:102780000860704700213D498279002A3AD00A4604
:10279000126803689A430B461A600A1D12680368A0
:1027A0009A430B1D1A60027911440A6803681A43A0
:1027B0000A60324A0832126803689A432F4B083382
:1027C0001A601A1D126803689A432C4B0C331A6066
:1027D0004279102A0ED11A1F126803681A43274B38
:1027E00008331A601A1D126803681A43234B0C330E
:1027F0001A600DE02149427911440A6803681A43BE
:102800000A6005E0027911440A6803689A430A6085
:1028100070470021016001710C214171002181711B
:1028200070471649103109680143144A103211608B
:10283000704701460020114A143212680A400AB15A
:10284000012000E0002070470C49143108607047F7
:10285000014600200022094B1B6803EA0102074BD6
:1028600014331B680B4013B10AB1012000E00020B3
:1028700070470249143108607047000000040140AD
:10288000FFFF0F0010B50446CC48844208D1012157
:10289000042000F02DFB0021042000F029FB46E07D
:1028A000C748844208D10121082000F021FB002103
:1028B000082000F01DFB3AE0C248844208D1012103
:1028C000102000F015FB0021102000F011FB2EE07D
:1028D000BD48844208D10121202000F009FB0021DD
:1028E000202000F005FB22E0B848844208D10121F5
:1028F000402000F0FDFA0021402000F0F9FA16E037
:10290000B348844208D10121802000F0F1FA00216F
:10291000802000F0EDFA0AE0AE48844207D10121A0
:10292000801500F0E5FA0021A01500F0E1FA10BDD5
:1029300010B50121084600F0DBFA0021012000F06B
:10294000D7FA10BD2DE9F0410246002500260020EF
:1029500000230024002791F803C00CF00F0591F824
:1029600003C00CF0100CBCF1000F03D091F802C0B2
:102970004CEA050591F800C0BCF1000F31D0146895
:1029800000202BE04FF0010C0CFA00F3B1F800C06E
:102990000CEA03069E4220D183004FF00F0C0CFA84
:1029A00003F7BC4305FA03FC4CEA040491F803C0A6
:1029B000BCF1280F06D14FF0010C0CFA00FCC2F854
:1029C00014C00AE091F803C0BCF1480F05D14FF0E4
:1029D000010C0CFA00FCC2F810C0401C0828D1D32E
:1029E0001460B1F800C0BCF1FF0F34DD5468002062
:1029F0002EE000F1080C4FF0010808FA0CF3B1F8D2
:102A000000C00CEA03069E4221D183004FF00F0C58
:102A10000CFA03F7BC4305FA03FC4CEA040491F8F2
:102A200003C0BCF1280F05D100F1080C08FA0CF81E
:102A3000C2F8148091F803C0BCF1480F07D100F12F
:102A4000080C4FF0010808FA0CF8C2F81080401C7E
:102A50000828CED35460BDE8F0814FF6FF710180A5
:102A6000022181700421C1707047024600209368E2
:102A70000B400BB1012000E0002070470146886840
:102A800080B2704702460020D3680B400BB1012092
:102A900000E0002070470146C86880B270470161BD
:102AA0007047416170470AB1016100E041617047C0
:102AB000C16070474FF480320A4382618161826154
:102AC00082698269704702460020434B18684FF6BE
:102AD0008073184040EA021008433F4B186070476B
:102AE0003E49C8617047F0B50A4600230024002122
:102AF000002500F00046B6F1004F02D1364EF169D4
:102B000001E0354E7168C0F3034583B200F440160E
:102B1000B6F5401F08D121F070612F4E766826F07F
:102B200070662D4F7E6012E000F48016B6F5801FAF
:102B300006D1032606FA05F4A14341F0706106E0D0
:102B4000460D360103FA06F6B14341F0706122B139
:102B5000460D360103FA06F6314300F00046B6F1A1
:102B6000004F02D11C4EF16101E01B4E7160F0BDBF
:102B700030B500228B071C0F0F2303FA04F2164B0B
:102B800008338C1053F824309343134C08348D10C1
:102B900044F8253023468C1053F824308C07240F3A
:102BA00000FA04F423430C4C08348D1044F825300B
:102BB00030BD0A49DC310860704700000008014060
:102BC000000C0140001001400014014000180140B9
:102BD000001C014000200140000001400000204294
:102BE000DF48006840F00100DD49086008464068A1
:102BF000DC490840DA49486008460068DA4908407C
:102C0000D74908600846006820F48020086008461C
:102C1000406820F4FE0048604FF41F008860704751
:102C2000CF49096821F48031CD4A11601146096805
:102C300021F480211160B0F5803F03D0B0F5802FE2
:102C40000ED106E0C649096841F48031C44A1160DA
:102C500007E0C349096841F4A021C14A116000E0BE
:102C600000BF00BF704710B50146002200230020BE
:102C70004A11012A02D1BA4C236806E0022A02D185
:102C8000B74C236A01E0B64C636A01F01F020124CD
:102C900094401C400CB1012000E0002010BD38B56C
:102CA000002000900024002500BF3120FFF7DBFF4B
:102CB00005460098401C00900098B0F5A06F01D028
:102CC000002DF2D03120FFF7CEFF08B1012400E043
:102CD0000024204638BD01460020A14A106820F09B
:102CE000F80040EAC10010607047A04908607047D2
:102CF000024600209A4B586820F47C1042EA0103F7
:102D00001843974B586070479849086670470146CA
:102D10000020934A506820F0030008435060704739
:102D20008F48406800F00C007047014600208C4A34
:102D3000506820F0F00008435060704701460020C2
:102D4000874A506820F4E0600843506070470146AD
:102D50000020834A506820F4605040EAC10050606F
:102D6000704729B17E4A527A02437D4B5A7204E081
:102D70007B4A527A82437A4B5A7270477B49D831E8
:102D80000860704701460020754A506820F44040B2
:102D90000843506070470021714A20321170704A18
:102DA00082F82010012802D004280AD104E0012171
:102DB0006B4A2032117005E00521694A20321170FA
:102DC00000E000BF00BF7047694908607047644970
:102DD000096A0143624A11627047654944390860D3
:102DE000704730B500210022002400235C4D6D683F
:102DF00005F00C0121B1042905D0082923D105E0F3
:102E00005C4D056022E05B4D05601FE0544D6D6830
:102E100005F47012524D6D6805F48034022505EBFF
:102E200092421CB9544D554305600BE04C4D6D6802
:102E300005F400351DB1504D5543056002E04D4D80
:102E40005543056002E04B4D056000BF00BF444D97
:102E50006D6805F0F0010909484D6B5C0568DD40BF
:102E600045603F4D6D6805F4E061090A434D6B5CB8
:102E70004568DD4085603A4D6D6805F46051C90ACA
:102E80003E4D6B5C4568DD40C560354D6D6805F4B1
:102E90004041890B3A4D6B5CC568B5FBF3F50561A4
:102EA00030BD29B12E4A526902432D4B5A6104E0CC
:102EB0002B4A526982432A4B5A61704729B1284AEA
:102EC00092690243264B9A6104E0254A9269824343
:102ED000234B9A61704729B1214AD2690243204BA2
:102EE000DA6104E01E4AD26982431D4BDA61704701
:102EF00029B11B4AD2680243194BDA6004E0184A30
:102F0000D2688243164BDA60704729B1144A1269BD
:102F10000243134B1A6104E0114A12698243104BB9
:102F20001A61704712494039086070470F49C864F8
:102F300070470B49C87170470948406A40F080707B
:102F400007494862704701460020054A92680A40D6
:102F50000AB1012000E000207047014988727047E3
:102F6000001002400000FFF8FFFFF6FE00004242A2
:102F70008004424200127A0000093D0078040020DB
:102F80008804002010B50446FE48844208D101217F
:102F9000C014FFF7ADFF0021E014FFF7A9FFC4E064
:102FA000B4F1804F08D101210846FFF7AEFF0021A0
:102FB0000120FFF7AAFFB8E0F348844208D10121BD
:102FC0000220FFF7A2FF00210220FFF79EFFACE0E6
:102FD000EE48844208D101210420FFF796FF00212A
:102FE0000420FFF792FFA0E0E948844208D10121C4
:102FF0000820FFF78AFF00210820FFF786FF94E0F2
:10300000E448844208D101211020FFF77EFF00210F
:103010001020FFF77AFF88E0DF48844208D10121C1
:103020002020FFF772FF00212020FFF76EFF7CE0D9
:10303000DA48844208D101214014FFF759FF0021EA
:103040006014FFF755FF70E0D548844209D1012193
:10305000C804FFF74DFF00214FF40020FFF748FFA1
:1030600063E0D048844209D101210805FFF740FF01
:1030700000214FF48010FFF73BFF56E0CA4884421E
:1030800009D101214805FFF733FF00214FF400105B
:10309000FFF72EFF49E0C548844208D101214020B6
:1030A000FFF733FF00214020FFF72FFF3DE0C0482E
:1030B000844208D101218020FFF727FF00218020D2
:1030C000FFF723FF31E0BB48844208D1012180157E
:1030D000FFF71BFF0021A015FFF717FF25E0B648FB
:1030E000844209D101210804FFF702FF00214FF4B7
:1030F0008030FFF7FDFE18E0B048844209D101217D
:103100004804FFF7F5FE00214FF40030FFF7F0FE12
:103110000BE0AB48844208D101218804FFF7E8FEA8
:1031200000214FF48020FFF7E3FE10BD002202884B
:10313000944B98420ED0994B98420BD0B0F1804FEF
:1031400008D0914B984205D0904B984202D0904BBA
:10315000984204D14FF68F731A404B881A438D4B17
:10316000984207D08C4B984204D04FF6FF431A4048
:10317000CB881A4302808B8883850B880385814B1B
:1031800098420BD0854B984208D08B4B984205D083
:103190008A4B984202D08A4B984201D10B7A03861F
:1031A00001238382704770B5002400220023058C20
:1031B0004FF6FE7635400584028C8388048B4FF6EB
:1031C0008F752C40B51E2C400D882C43751E2A404F
:1031D0000D892A434D882A436A4DA8420BD06F4D72
:1031E000A84208D0744DA84205D0744DA84202D020
:1031F000734DA84213D14FF6F7752A404D892A43E3
:103200004FF6FB752A408D882A434FF6FF652B4009
:103210004FF6FF552B408D892B43CD892B4383805F
:103220000483CD888586028470BD70B50024002299
:103230000023058C4FF6EF7635400584028C838899
:10324000048B48F6FF752C404FF6FF452C400D8847
:103250004FF6FF7606EA05252C434FF6DF752A4028
:103260000D8906EA05152A434D8806EA05152A4305
:10327000444DA84202D0494DA8421DD14FF67F755A
:103280002A404D894FF6FF7606EA05152A434FF688
:10329000BF752A408D8806EA05152A434FF6FF358B
:1032A0002B404FF2FF752B408D8906EA85052B4395
:1032B000CD8906EA85052B4383800483CD88058765
:1032C000028470BD70B5002400220023058C4FF6E7
:1032D000FF6635400584028C8388848B4FF68F759A
:1032E0002C404FF6FC752C400D882C434FF6FF55B3
:1032F0002A400D894FF6FF7606EA05252A434D88B8
:1033000006EA05252A431F4DA84202D0234DA842B4
:103310001DD14FF2FF752A404D894FF6FF7606EA20
:1033200005252A434FF6FF352A408D8806EA0525F4
:103330002A434EF6FF752B404DF6FF752B408D89C5
:1033400006EA05152B43CD8906EA05152B43838034
:103350008483CD888587028470BD70B500220023E8
:103360000024058C4EF6FF7635400584038C848856
:10337000828B48F6FF752A404FF6FF452A400D889C
:1033800020E00000002C0140000400400008004044
:10339000000C0040001000400014004000340140C8
:1033A000004C014000500140005401400018004012
:1033B000001C00400020004000400140004401404B
:1033C000004801404FF6FF7606EA05252A434DF6F0
:1033D000FF752B400D8906EA05352B434D8806EA1B
:1033E00005352B43FA4DA84202D0FA4DA84208D128
:1033F0004BF6FF752C408D894FF6FF7606EA851552
:103400002C4384808283CD88A0F84050038470BD13
:10341000828B4FF2FF331A408283828B4FF6FF7309
:1034200003EA01231A4382837047F0B50C46154620
:10343000002200210026078C4EF6FF7C07EA0C07CD
:103440000784828B018C4FF6FF7707EA043640F63B
:10345000FF473A404FF6FF7707EA05273A434FF612
:10346000FF7707EA03373A43D94FB8420ED0D94F16
:10347000B8420BD0B0F1804F08D0D74FB84205D03A
:10348000D64FB84202D0D64FB84206D14DF6FF779C
:10349000394046F48057394305E047F6FF57394035
:1034A00044F48057394382830184F0BD828B4FF608
:1034B000F3731A408283828B0A4382837047F0B58C
:1034C0000C461546002200210026078C4FF6FF6CA3
:1034D00007EA0C070784828B018C4FF6FF7707EA17
:1034E00004264FF60C773A404FF6FF7707EA0317AA
:1034F0002F433A43B64FB8420ED0B64FB8420BD026
:10350000B0F1804F08D0B44FB84205D0B34FB842A5
:1035100002D0B34FB84206D14FF6FF57394046F4B8
:103520008077394305E04FF2FF57394044F4807704
:10353000394382830184F0BD028B4FF2FF331A407E
:103540000283028B4FF6FF7303EA01231A430283BF
:103550007047F0B50C461546002200210026078C66
:103560004FF6EF7C07EA0C070784028B018C4FF6BD
:10357000FF7707EA041640F6FF473A404FF6FF7719
:1035800007EA03373A434FF6FF7707EA05273A433E
:103590008F4FB8420ED08F4FB8420BD0B0F1804F52
:1035A00008D08D4FB84205D08C4FB84202D08C4F16
:1035B000B84206D14FF6DF77394046F0100739435D
:1035C00005E04FF65F77394044F010073943028336
:1035D0000184F0BD028B4FF6F3731A400283028B15
:1035E0000A4302837047F0B50C46154600220021BD
:1035F000068C4FF6FE773E400684028B018C4FF618
:103600000C7632407E1C06EA03162E433243704E7F
:10361000B0420ED06F4EB0420BD0B0F1804F08D008
:103620006D4EB04205D06D4EB04202D06C4EB042ED
:1036300006D14FF6FD76314044F00106314305E0F6
:103640004FF6F576314044F00106314302830184A0
:10365000F0BD70B505460C465D4885420ED05D480C
:1036600085420BD0B5F1804F08D05B48854205D02C
:103670005A48854202D05A48854200D100E000BF36
:10368000208850B92389A28861882846FFF7ABFFBC
:10369000E1882846FFF79EFF25E0208804280AD10C
:1036A0002389A28861882846FFF753FFE1882846CE
:1036B000FFF742FF17E0208808280AD12389A28853
:1036C00061882846FFF7FBFEE1882846FFF7EEFEFB
:1036D00009E02389A28861882846FFF7A6FEE188D1
:1036E0002846FFF795FE70BD2DE9F04105460C46D2
:1036F00000260127608808B9022600E00026A0887D
:10370000012801D1022700E001272088A0B92389E0
:10371000A28861882846FFF766FFE1882846FFF700
:1037200059FF23893A4631462846FFF712FFE188C0
:103730002846FFF701FF13E02389A2886188284605
:10374000FFF707FFE1882846FFF7F6FE23893A4690
:1037500031462846FFF747FFE1882846FFF73AFF42
:10376000BDE8F0810A884B881A438B881A43CB88BE
:103770001A430B891A434B891A438B891A43A0F8C1
:10378000442070474FF6FF71818000210180C18085
:103790004180017270470021018041808180C18099
:1037A000018141818181C181704700210180418077
:1037B000012181800021C1800181704700210180A9
:1037C00041808180C18001814181818170470000F9
:1037D000002C01400034014000040040000800407B
:1037E000000C004021B1028842F00102028004E096
:1037F00002884FF6FE731A400280704731B1B0F86C
:10380000442042F40042A0F8442005E0B0F84420EF
:10381000C2F30E02A0F8442070471AB183890B430B
:10382000838102E083898B43838170478182704763
:1038300041EA0203A0F8483070471AB183890B436C
:10384000838102E083898B438381704701894FF62E
:10385000F8721140018170470A46002101894FF634
:103860008F73194011430181704730B504460D46EE
:1038700029462046FFF7F0FF208940F0070020810D
:1038800030BD2DE9F04104460D4616461F46602D19
:1038900006D13B46012231462046FFF75AFE05E09D
:1038A0003B46012231462046FFF79DFE2946204631
:1038B000FFF7D2FF208940F007002081BDE8F081AA
:1038C00030B50C4600210189C9B24FF6FF7505EAF3
:1038D0000325154325432943018130BD2DE9F041DE
:1038E00005460E4617469846002443463A4631465A
:1038F0002846FFF7E5FF2C894FF6F870044044F0A6
:1039000007044FF68F70044044F070042C81BDE82A
:10391000F081F0B504460D4616461F463B4632463A
:1039200029462046FFF7CCFF208940F480402081C3
:10393000F0BD0185828270470A46002101884FF65A
:103940008F731940114301807047F0B50C4615463E
:103950001E460021002200230189028B038C4FF6B2
:10396000F877394021434FF6FC473A4040F20117BF
:103970003A434FF6DD773B404FF6FF7707EA0617ED
:103980002F433B43018102830384F0BD0A4600219B
:10399000018B4FF68F7319401143018370470A461C
:1039A0000021018B48F6FF7319404FF6FF7303EABD
:1039B00002231943018370470A460021818B4FF689
:1039C0008F7319401143818370470A460021818B10
:1039D00048F6FF7319404FF6FF7303EA02231943B9
:1039E0008183704721B1028842F08002028004E0A6
:1039F00002884FF67F731A400280704721B1828897
:103A000042F00402828004E082884FF6FB731A4081
:103A10008280704721B1828842F00802828004E0EF
:103A200082884FF6F7731A408280704721B18288EE
:103A300042F00102828004E082884FF6FE731A4051
:103A4000828070470A460021018B4FF6F7731940B8
:103A50001143018370470A460021018B4FF2FF7327
:103A600019404FF6FF7303EA02231943018370479D
:103A70000A460021818B4FF6F77319401143818369
:103A800070470A460021818B4FF2FF7319404FF6B1
:103A9000FF7303EA02231943818370470A4600211A
:103AA000018B4FF6FB7319401143018370470A469F
:103AB0000021018B4FF6FF3319404FF6FF7303EAE5
:103AC00002231943018370470A460021818B4FF678
:103AD000FB7319401143818370470A460021818B93
:103AE0004FF6FF3319404FF6FF7303EA02231943E1
:103AF000818370470A460021018B4FF67F7319407E
:103B00001143018370470A460021018BC1F30E0166
:103B10004FF6FF7303EA02231943018370470A46F5
:103B20000021818B4FF67F731940114381837047C9
:103B30000A460021818BC1F30E014FF6FF7303EAA1
:103B400002231943818370470A460021018C4FF6F6
:103B5000FD7319401143018470470A460021018C0E
:103B60004FF6F77319401143018470470A4600214C
:103B7000018C4FF6DF7319404FF6FF7303EA02130F
:103B80001943018470470A460021018C4FF67F7368
:103B900019404FF6FF7303EA02131943018470477B
:103BA0000A460021018C4FF6FF5319404FF6FF7370
:103BB00003EA02231943018470470A460021018C5D
:103BC0004FF2FF7319404FF6FF7303EA02231943C4
:103BD000018470470A460021018C4DF6FF7319409D
:103BE0004FF6FF7303EA023319430184704730B57F
:103BF000002301248C40A3B2048C9C430484048CD5
:103C000002FA01F5ADB22C43048430BD30B5002377
:103C100004248C40A3B2048C9C430484048C02FAD8
:103C200001F5ADB22C43048430BD70B503460020CD
:103C300000241846183001258D40ACB21D8CA543D8
:103C40001D8409B1082909D100EB6100056825F040
:103C5000700505600568154305600EE00D1FC5F38E
:103C60004E052844056825F4E045056005684FF6D3
:103C7000FF7606EA02263543056070BD21B1028851
:103C800042F00202028004E002884FF6FD731A40FF
:103C90000280704721B1028842F00402028004E0F1
:103CA00002884FF6FB731A400280704721B1828868
:103CB00042F08002828004E082884FF67F731A40CF
:103CC0008280704702884FF6F7731A40028002889C
:103CD0000A430280704782884FF68F731A408280B1
:103CE00082880A438280704702894FF6F8731A402F
:103CF000028102890A430281704702894FF67F736D
:103D00001A40028102890A43028170478184704708
:103D1000818570478186704701877047818770472A
:103D2000A0F84010704702884FF6FF431A40028007
:103D300002880A43028070470146888E7047014618
:103D4000088F70470146888F70470146B1F84000E0
:103D500070470146888C70470146088D70470246BF
:103D60000020138A0B400BB1012000E000207047B7
:103D7000CA430282704730B5024600200023002467
:103D8000158A05EA0103958905EA010413B10CB10E
:103D9000012000E0002030BDCA43028270470000CD
:103DA00010B50446FB48844209D101218803FFF77E
:103DB0009FF800214FF48040FFF79AF832E0F64870
:103DC000844209D101214804FFF79FF800214FF4F4
:103DD0000030FFF79AF825E0F048844209D101212C
:103DE0008804FFF792F800214FF48020FFF78DF848
:103DF00018E0EB48844209D10121C804FFF785F897
:103E000000214FF40020FFF780F80BE0E5488442E2
:103E100008D101210805FFF778F800214FF4801040
:103E2000FFF773F810BD2DE9F04786B005460E4642
:103E30000024A24600BFA1460027B08900B100BF00
:103E40002F462C8A4CF6FF700440F08804432C82E5
:103E5000AC894EF6F3100440B0883189084371896B
:103E600008430443AC81AC8A4FF6FF400440B0895C
:103E70000443AC8201A8FEF7B4FFC648874202D1D2
:103E8000DDF810A001E0DDF80CA0A88900F40040E6
:103E900040B10AEBCA0000EB0A1031684900B0FBE0
:103EA000F1F807E00AEBCA0000EB0A10316889005C
:103EB000B0FBF1F86420B8FBF0F0040120096421A4
:103EC00001FB1089A88900F4004040B1322000EBCA
:103ED000C900B0FBF1F000F00700044308E0322015
:103EE00000EB09106421B0FBF1F000F00F00044377
:103EF0002C8106B0BDE8F0874FF416510160002117
:103F00008180C18001810C21418100218181704724
:103F100010B502460020108A4FF2FF0318400B88AC
:103F20004C8823438C882343CC8823431843108236
:103F300010BD0021018041808180C180704721B186
:103F4000828942F40052828104E082894DF6FF7337
:103F50001A4082817047F0B50346002400260025F0
:103F6000002040F66A17B94200D100BF1846C1F3DD
:103F7000421401F01F06012707FA06F5012C01D1B2
:103F80000C3004E0022C01D1103000E014301AB1E2
:103F900007682F43076002E00768AF430760F0BD82
:103FA0001AB1838A0B43838202E0838A8B43838224
:103FB0007047028A4FF6F0731A400282028A0A435F
:103FC0000282704782894FF2FF731A408281828990
:103FD0000A438281704721B1828942F002028281C4
:103FE00004E082894FF6FD731A4082817047028A8D
:103FF0004FF6DF731A400282028A0A430282704738
:1040000021B1028A42F48042028204E0028A4BF625
:10401000FF731A4002827047C1F308028280704722
:1040200001468888C0F308007047818941F001018A
:1040300081817047028BD2B20283028B42EA012255
:1040400002837047028B02F47F420283028B0A4391
:104050000283704721B1828A42F02002828204E00A
:10406000828A4FF6DF731A408282704721B1828ABA
:1040700042F01002828204E0828A4FF6EF731A4007
:104080008282704721B1828A42F00802828204E073
:10409000828A4FF6F7731A408282704721B1828973
:1040A00042F40042828103E08289C2F30E028281DF
:1040B000704721B1828A42F40062828204E0828ADF
:1040C0004FF2FF731A4082827047828A4FF6FB7369
:1040D0001A408282828A0A438282704721B1828A90
:1040E00042F00202828204E0828A4FF6FD731A4097
:1040F0008282704702460020B1F5007F00D100BFE8
:1041000013880B400BB1012000E00020704701F440
:104110000072B2F5007F00D100BFCA430280704731
:1041200070B50246002400230025002040F66A16E0
:10413000B14200D100BFC1F3421501F01F030126B7
:1041400006FA03F3012D02D19689334006E0022DD1
:1041500002D1168A334001E0968A33400C120126C0
:1041600006FA04F41688344013B10CB1012000E0C3
:10417000002070BD10B50022002340F66A14A14251
:1041800000D100BF0A1201249440A3B2DC43048092
:1041900010BD0000003801400044004000480040CD
:1041A000004C004000500040F0B480EA0102D40FFF
:1041B0004200B2EB410F02D20246084611464A00C5
:1041C00042D0C30DDDB2C1F3C752AD1A202D35DA8E
:1041D000C1F3160141F4000204B15242C5F12006B8
:1041E00002FA06F12A411044B3EBD05F23D0C4B1E8
:1041F000012DA0EBC35009DCF0BC4FF0004202EAF5
:10420000C352DBB200F5000000F046BB400000F1F5
:10421000807000EBC350A0F1807040EAD17049007B
:1042200009E0490841EAC071A0EBC35000F5000065
:10423000400800EBC350F0BC00F025BB61420122F6
:1042400002EB4101001BF6E7F0BC704781F0004132
:10425000AAE780F00040A7E780EA010210B502F06B
:104260000043400022D04A001FD0010E01EB126132
:10427000C0F35600C2F3560240F4000042F40002BC
:10428000A0FB022000047F39140400D0401C50EA37
:10429000124001D44000491EC2B20C0604EBD010FB
:1042A000401C4008802A02D003E0002010BD20F00E
:1042B0000100002900DA0020184310BD30B480EA64
:1042C000010202F0004530F0004221F0004013D01E
:1042D00090B1C30DD40DC2F31601C0F31600E41A59
:1042E00041F4000140F400027D34914201D3641C8A
:1042F00000E04900002C02DA30BC002070474FF487
:1043000000000023914201D3891A034340084FEA79
:104310004101F7D151B1914202D14FF0004105E086
:1043200002D24FF0010101E06FF0010103EBC45034
:10433000284430BC00F0A7BA2DE9FE4F804681EA40
:104340000300C00F0C46009021F0004123F000450F
:10435000B8EB0200A94105D24046214690461C46D2
:104360000B46024623F00040104347D0270DC7F309
:104370000A00C3F30A510290401A019040286BDAF8
:10438000C3F3130040F4801B0098924620B1002331
:10439000D2EB030A63EB0B0B01985946C0F14002C4
:1043A000504600F03FFA06460D4650465946019ADF
:1043B00000F057FA10EB08006141002487EA11521F
:1043C00084EAE7731A4340D0009A62B3019A012A43
:1043D0004FEA075215DC001B61EB02014FF000426F
:1043E00002EA0752CDE90042001C41F58011324635
:1043F0002B4600F08EFA03B0BDE8F08F4046214610
:10440000F9E7001B61EB0201001C41F58013001865
:104410005B412018A2F5001747EB030140EAD57075
:10442000B6196D4111E06D084FEA360645EAC075D0
:104430004FEA0752001B61EB0201001C41F580119D
:1044400049084FEA30000019514132462B4603B06B
:10445000BDE8F04F00F04EBA009801224000002362
:10446000D0EB020263EBE073009821464FEAE07460
:10447000B8EB000061EB0401E9E783F000435BE780
:1044800081F0004158E72DE9FE4F81EA030404F072
:10449000004421F0004100944FF0000B23F0004352
:1044A00050EA01045ED052EA03045BD0C3F30A541D
:1044B000C1F30A552C44A4F2F3340194A0FB025436
:1044C000C1F3130141F48011C3F3130343F48013C8
:1044D00001FB024400FB034E840A970A44EA81541C
:1044E00047EA8357A4FB076802958D0A05FB0785F9
:1044F0004FEA932C04FB0C542705029D4FEA065803
:1045000047EA1637B5EB08056EEB070C870E920EDF
:1045100047EA811742EA8312A7FB0201B6EB0B01BF
:1045200064EB00042B0D43EA0C335E1844EB1C5083
:10453000DA465146E7FB0201C5F313044FEA0B3399
:1045400043EA14534FEA0432019C43EA0603A4F100
:104550000C040294009CCDE900B400F0DAF903B039
:10456000BDE8F08F00200146F9E72DE9F04D81EA22
:10457000030404F0004B21F0004514464FF0000AFC
:1045800023F0004150EA050220D054EA01021DD078
:10459000C5F30A570246C5F31303C1F31300C1F371
:1045A0000A5640F4801543F48013A7EB0608101B4D
:1045B000D64608F2FD3873EB050002D308F1010876
:1045C00001E092185B41B8F1000F03DA00200146C8
:1045D000BDE8F08D00204FF48011064684460EE0C1
:1045E000171B73EB050705D3121B63EB050306438B
:1045F0004CEA010C49084FEA300092185B4150EA3E
:104600000107EDD152EA030012D082EA040083EAE6
:104610000501084305D0101BAB4106D2012200233F
:1046200006E000224FF0004302E06FF00102531059
:104630001AEB06004CEB085110EB0A0041EB0B01A2
:10464000BDE8F04D00F056B9C10F80EAE0700844B3
:10465000CA079623002100F01FB9962300221146B5
:1046600000F01AB90EB5C10F80EAE0700844CA071D
:10467000002140F233438DE80E000A460B4600F05D
:1046800048F903B000BD0EB540F23341029100215C
:10469000CDE900110A460B4600F03BF903B000BD1E
:1046A00000F0004220F00040C10DC0F3160040F4BD
:1046B00000007F2901DA00207047962903DCC1F150
:1046C0009601C84001E096398840002AF4D0404263
:1046D000704770B5C1F30A5201F000450024C1F3E0
:1046E000130140F2FF3341F480119A4201DA0020B5
:1046F00070BD40F233439A42A2F2334203DC52428D
:1047000000F09FF800E090402C43F1D0404270BD93
:10471000C1F30A5210B5C1F3130140F2FF3341F463
:1047200080119A4201DA002010BD40F233439A42D0
:10473000A2F2334203DC524200F083F810BD9040F5
:1047400010BD00F0004230F000400AD0C10D01F56C
:104750006071C0F3160042EA0151C20840071143DC
:10476000704700200146704730B5041E71F1000407
:1047700004DB4FF00044404264EB0101141E73F16E
:10478000000405DB1C464FF00043524263EB040378
:104790008B4208BF824230BD01F0004330B421F0AB
:1047A000004150EA010206D00A0DA2F56072C1F381
:1047B0001301002A02DC30BC00207047440F44EA99
:1047C000C104C100E01830BC00EBC25000F05BB87F
:1047D000002801DBC0F10040002901DBC1F10041EC
:1047E00081427047002801DBC0F10040002901DB55
:1047F000C1F100418842704730B50B4601460020A8
:104800002022012409E021FA02F59D4205D303FA92
:1048100002F5491B04FA02F52844151EA2F1010213
:10482000F1DC30BD202A04DB203A00FA02F100203E
:1048300070479140C2F1200320FA03F319439040DE
:104840007047202A04DB203A21FA02F00021704749
:1048500021FA02F3D040C2F12002914008431946E8
:104860007047202A06DBCB17203A41FA02F043EAD0
:10487000E07306E041FA02F3D040C2F12002914019
:104880000843194670470029A8BF7047401C4900DB
:1048900008BF20F00100704710B4B0FA80FC00FAA5
:1048A0000CF050EA010404BF10BC704749B1CCF1D0
:1048B000200421FA04F411FA0CF118BF012121435C
:1048C0000843A3EB0C01CB1D4FEA00614FEA102017
:1048D00042BF002010BC704700EBC35010440029B9
:1048E000A4BF10BC7047401C490008BF20F0010065
:1048F00010BC704710B5141E73F1000408DA401C98
:1049000041F1000192185B411A4301D120F00100EE
:1049100010BD2DE9F04D92469B4611B1B1FA81F2DE
:1049200002E0B0FA80F220329046FFF77BFF0446A7
:104930000F4640EA0A0041EA0B0153465A46084333
:1049400013D0114653EA010019D0C8F14002504675
:10495000FFF777FF05460E46504659464246FFF799
:1049600061FF084305D0012004E020463946BDE838
:10497000F08D0020054346EAE0762C4337430A9841
:104980006305E40AA0EB08000022FD0A44EA47544C
:104990000A3002D500200146E9E7010510196941F6
:1049A000DDE9084500196941BDE8F04DA2E70000C6
:1049B000064C074D06E0E06840F0010394E807006C
:1049C00098471034AC42F6D3FBF794FBD853000859
:1049D000F853000870B58C1810F8015B15F0070348
:1049E00001D110F8013B2A1106D110F8012B03E088
:1049F00010F8016B01F8016B5B1EF9D12B0705D490
:104A00000023521E0DD401F8013BFAE710F8013BD8
:104A1000CB1A921C03E013F8015B01F8015B521EF4
:104A2000F9D5A142D8D3002070BD00000FB4054BCA
:104A300010B503A9044A029800F018F810BC5DF8FC
:104A400014FB0000070700087800002002E008C8F7
:104A5000121F08C1002AFAD170477047002001E0F8
:104A600001C1121F002AFBD1704700002DE9FF4F42
:104A700089B09B460446002506E025280BD05A46FF
:104A80000B999047641C6D1C20780028F5D10DB05F
:104A90002846BDE8F08F0027B8460122474900E0CC
:104AA000074314F8013F203B02FA03F00842F7D114
:104AB00020782E2819D114F8010F47F004072A286E
:104AC0000ED06FF02F022078A0F1300109290CD808
:104AD00008EB880102EB410100EB0108641CF2E7DE
:104AE0000A98641C50F8048B0A9020780028CED0D5
:104AF000642808D0692806D075281ED05A460B991C
:104B000090476D1C58E00A994FF00A0901C90A91B3
:104B1000002802DA40422D2102E0390504D52B217C
:104B20008DF82010012103E0F90704D02021F7E7D8
:104B30008A4608AE0DE00021FAE70A994FF00A090B
:104B400001C90A91F7E74946FFF756FE303106F8EA
:104B5000011D0028F7D1ADEB060000F12009780710
:104B600001D44FF00108C84502DDA8EB090000E0C0
:104B700000208046002706E008A85A46C05D0B9931
:104B800090476D1C7F1C5745F6DB04E030205A46E9
:104B90000B9990476D1CB8F10001A8F10108F5DCF4
:104BA00005E016F8010B5A460B9990476D1CB9F1B8
:104BB0000001A9F10109F4DC641C65E70928010082
:104BC0000000000000000000002F000000000700AF
:104BD000070000147F147F1400242A7F2A12006229
:104BE00064081323003649552250000005030000D5
:104BF00000001C224100000041221C000014083E5D
:104C000008140008083E0808000000A06000000822
:104C10000808080800006060000000201008040276
:104C2000003E5149453E0000427F40000042615134
:104C30004946002141454B31001814127F100027CE
:104C400045454539003C4A49493000017109050391
:104C500000364949493600064949291E00003636C2
:104C60000000000056360000000814224100001425
:104C70001414141400004122140800020151090602
:104C800000324959513E007C1211127C007F494983
:104C90004936003E41414122007F4141221C007FB4
:104CA00049494941007F09090901003E4149497AC2
:104CB000007F0808087F0000417F4100002040413C
:104CC0003F01007F08142241007F40404040007FA8
:104CD000020C027F007F0408107F003E4141413EEC
:104CE000007F09090906003E4151215E007F091934
:104CF00029460046494949310001017F0101003F31
:104D00004040403F001F2040201F003F4038403FB0
:104D10000063140814630007087008070061514914
:104D2000454300007F41410000552A552A550000A7
:104D300041417F0000040201020400404040404025
:104D4000000001020400002054545478007F4844BD
:104D5000443800384444442000384444487F0038F4
:104D60005454541800087E0901020018A4A4A47C1D
:104D7000007F080404780000447D400000408084E7
:104D80007D00007F102844000000417F4000007C2F
:104D900004180478007C080404780038444444383B
:104DA00000FC242424180018242418FC007C080487
:104DB000040800485454542000043F444020003C60
:104DC0004040207C001C2040201C003C4030403CE7
:104DD000004428102844001CA0A0A07C0044645477
:104DE0004C441414141414140000000000000000BB
:104DF0000000000000000000000000F800000000BB
:104E0000000000333000000000100C06100C0600FB
:104E1000000000000000000040C07840C078400062
:104E2000043F04043F040400007088FC08300000C4
:104E3000001820FF211E0000F008F000E01800001C
:104E400000211C031E211E0000F0088870000000D5
:104E50001E2123241927211010160E000000000027
:104E60000000000000000000000000E01804020044
:104E7000000000071820400000020418E0000000B5
:104E80000040201807000000404080F080404000B3
:104E90000202010F01020200000000F00000000009
:104EA0000101011F010101000000000000000000DD
:104EB00080B0700000000000000000000000000052
:104EC00000010101010101010000000000000000DB
:104ED0000030300000000000000000008060180476
:104EE000006018060100000000E010080810E00053
:104EF000000F102020100F00001010F8000000001C
:104F00000020203F20200000007008080888700062
:104F100000302824222130000030088888483000E2
:104F20000018202020110E000000C02010F8000002
:104F300000070424243F240000F80888880808009B
:104F40000019212020110E0000E0108888180000B0
:104F5000000F112020110E0000380808C838080082
:104F60000000003F00000000007088080888700002
:104F7000001C222121221C0000E010080810E00083
:104F80000000312222110F00000000C0C00000000C
:104F90000000003030000000000000800000000031
:104FA0000000806000000000000080402010080029
:104FB00000010204081020004040404040404000F2
:104FC00004040404040404000008102040800000CD
:104FD0000020100804020100007048080808F000D2
:104FE0000000003036010000C030C828E810E000A2
:104FF0000718272423140B000000C038E00000002D
:10500000203C23020227382008F888888870000096
:10501000203F202020110E00C0300808080838006A
:10502000071820202010080008F808080810E000E1
:10503000203F202020100F0008F88888E808100082
:10504000203F20202320180008F88888E808100056
:10505000203F200003000000C0300808083800008E
:1050600007182020221E020008F808000008F8088F
:10507000203F210101213F20000808F80808000016
:105080000020203F2020000000000808F808080049
:10509000C08080807F00000008F888C028180800C1
:1050A000203F20012638200008F8080000000000FA
:1050B000203F20202020300008F8F800F8F80800F1
:1050C000203F003F003F200008F830C00008F808EB
:1050D000203F200007183F00E01008080810E000FB
:1050E0000F10202020100F0008F808080808F00012
:1050F000203F210101010000E01008080810E00035
:105100000F18242438504F0008F8888888887000C9
:10511000203F2000030C3020007088080808380069
:105120000038202121221C00180808F8080818005F
:105130000000203F2000000008F808000008F808E0
:10514000001F202020201F000878880000C8380891
:10515000000007380E010000F80800F80008F80009
:10516000033C0700073C03000818688080681808A3
:1051700020302C03032C30200838C800C838080021
:105180000000203F2000000010080808C838080070
:105190002038262120201800000000FE0202020014
:1051A0000000007F40404000000C30C000000000C4
:1051B000000000010638C00000020202FE000000EC
:1051C000004040407F000000000004020202040092
:1051D00000000000000000000000000000000000CF
:1051E00080808080808080800002020400000000B7
:1051F00000000000000000000000808080800000AF
:105200000019242222223F2008F80080800000009C
:10521000003F112020110E0000000080808000005F
:10522000000E112020201100000000808088F8006E
:10523000000E112020103F200000808080800000A0
:10524000001F222222221300008080F08888881804
:105250000020203F2020000000008080808080000F
:10526000006B94949493600008F8008080800000A4
:10527000203F210000203F2000809898000000007F
:105280000020203F202000000000008098980000AF
:1052900000C08080807F000008F8000080808000CF
:1052A000203F24022D302000000808F800000000F4
:1052B0000020203F202000008080808080808000AF
:1052C000203F20003F20003F808000808080000041
:1052D000203F210000203F200000808080800000CF
:1052E000001F202020201F00808000808000000000
:1052F00080FFA12020110E0000000080808080002F
:10530000000E112020A0FF8080808000808080001F
:1053100020203F212000010000008080808080004C
:105320000033242424241900008080E080800000C1
:105330000000001F2020000080800000008080000E
:10534000001F202020103F2080808000008080806F
:1053500000010E30080601008080008000808080FF
:105360000F300C030C300F00008080008080800024
:105370000020312E0E31200080808000008080804F
:1053800080818E70180601000080808080808000FF
:105390000021302C2221300000000000807C02021D
:1053A00000000000003F404000000000FF0000003F
:1053B00000000000FF0000000002027C80000000EE
:1053C0000040403F0000000000060101020204040A
:1053D0000000000000000000F8530008000000205A
:1053E0008C040000D4490008A45500088C04002057
:1053F000440400005C4A00080120022B6232059A36
:1054000001045184A24A04C00901020304060708EA
:1054100009692802121426411F856B3EE340402390
:10542000B4436BC03F3CB96C01211BF010012AFF53
:10543000050215F01B0F04012AFF0502130F1809BE
:105440004040405F55555575041A5F0C09112108FD
:105450000C11200F094989790909090F201F112F03
:10546000FE02424ACA4A0304134202FE000E14FF1F
:1054700040504C4340404F50505C40FF1BF8880167
:105480002AFF050215F81B1F08012A7F200B109F19
:1054900080E23B808201000916E2A2928A86828025
:1054A00080041840807F172424A4FEA3221B22CC52
:1054B000AA011415080601FF2B0104010511FF02C2
:1054C00002025808101010FF109008C302110808BB
:1054D0000F100444827F01808040432C10284681B5
:1054E000A018094040484848C8784F060515484864
:1054F00040400009150312122222528A063C106015
:1055000080BA19040B11C030FB1E404043407F0697
:105510001C7F424106094FC02941080B1110D030B1
:10552000FF30D0121C10101F3D080402019E0D1107
:1055300001020408211116FE222222FE0712FE8219
:105540008292A29E100880601F0242827F0F11FF8C
:10555000402F102C438011000B1490884C57A4242A
:1055600054548C84180801018042221A07441D42B9
:105570003E01018AF9E1000D14E4242CB42526240F
:10558000B42C24E404180AFF02011E1212121E4158
:105590008601222D01020304040009000607080900
:0455A00002040608F3
:04000005080000ED02
:00000001FF
